:100000000C9426010C9443010C94F6030C944301C8
:100010000C9443010C9443010C9443010C94430150
:100020000C9443010C9443010C9443010C94430140
:100030000C9443010C9443010C9443010C94430130
:100040000C9443010C9443010C9443010C94430120
:100050000C9443010C9443010C9443010C94430110
:100060000C9443010C9443010C9443010C94430100
:10007000000000000000005F0000000700070014FF
:100080007F147F14242A7F2A1223130864623649BE
:100090005522500005030000001C224100004122AF
:1000A0001C00082A1C2A0808083E080800503000D6
:1000B000000808080808006060000020100804021A
:1000C0003E5149453E00427F400042615149462130
:1000D00041454B311814127F1027454545393C4A9C
:1000E00049493001710905033649494936064949EC
:1000F000291E003636000000563600000008142283
:100100004114141414144122140800020151090668
:10011000324979413E7E1111117E7F494949363E6F
:10012000414141227F4141221C7F494949417F0988
:100130000901013E414151327F0808087F00417F9B
:1001400041002040413F017F081422417F40404050
:10015000407F0204027F7F0408107F3E4141413E00
:100160007F090909063E4151215E7F09192946464A
:100170004949493101017F01013F4040403F1F2073
:1001800040201F7F2018207F631408146303047825
:100190000403615149454300007F414102040810B6
:1001A0002041417F000004020102044040404040E1
:1001B000000102040020545454787F4844443838E5
:1001C00044444420384444487F3854545418087EEA
:1001D000090102081454543C7F0804047800447D4B
:1001E00040002040443D00007F10284400417F40F3
:1001F000007C041804787C080404783844444438AB
:100200007C14141408081414187C7C08040408488E
:1002100054545420043F4440203C4040207C1C2047
:1002200040201C3C4030403C44281028440C505096
:10023000503C4464544C44000836410000007F00A8
:1002400000004136080002010302010011241FBE14
:10025000CFEFD4E0DEBFCDBF14E0A0E0B1E0E0EB33
:10026000FCE102C005900D92A031B107D9F724E05E
:10027000A0E1B4E001C01D92A633B207E1F70E94ED
:100280008A050C94560E0C94000081B3806281BBE9
:1002900080E48FBD89E08EBD81E081BF0895EF923B
:1002A000FF920F931F93CF93DF9300D000D0CDB771
:1002B000DEB7082F40E060E070E080E094E10E944B
:1002C0003D0982E58A95F1F710E010C0E12EF12C8E
:1002D00060E070E080E094E10E944209E1E0F0E03B
:1002E000EC0FFD1FEE0DFF1D80831F5F143070F3B8
:1002F000013041F028F0023039F0033039F008C005
:10030000898107C08A8105C08B8103C08C8101C0AF
:1003100080E00F900F900F900F90DF91CF911F9181
:100320000F91FF90EF9008954F925F926F927F929E
:10033000AF92BF92CF92DF92EF92FF920F931F93F3
:10034000CF93DF93CDB7DEB729013A019B01AC0112
:10035000241935094609570989899A89AB89BC89C5
:10036000BC01CD016A197B098C099D090E944709CE
:10037000A801970124193509460957090E94570910
:10038000C601B501620F731F841F951FDF91CF91C6
:100390001F910F91FF90EF90DF90CF90BF90AF90A3
:1003A0007F906F905F904F900895AF92BF92CF92E1
:1003B000DF92EF92FF920F931F93611141C0873A32
:1003C00000F1682F70E080E090E01F921F921F9272
:1003D00024E62F930F2EF2E3AF2EB12CC12CD12C9B
:1003E000F02DE12CF12C8701EA9420EA30E040E086
:1003F00050E00E9494010F900F900F900F90862F65
:100400009EC0882309F498C0682F70E080E090E0D7
:100410001F921F921F9222E32F93A12CB12C6501F2
:100420001FE9E12EF12C00E010E020E030E0A9010E
:100430000E9494010F900F900F900F90862F7FC015
:100440006130F1F5873A00F1682F70E080E090E0CC
:100450001F921F921F9224E62F930F2EF2E3AF2ECE
:10046000B12CC12CD12CF02DE12CF12C8701EA9478
:1004700023EA30E040E050E00E9494010F900F909A
:100480000F900F90862F5BC0682F70E080E090E0A7
:100490001F921F921F9222E32F93A12CB12C650172
:1004A00012EAE12EF12C00E010E020E030E0A9019A
:1004B0000E9494010F900F900F900F90862F3FC0D5
:1004C0006230E1F4682F70E080E090E01F921F92AC
:1004D0001F9224E62F93A12CB12C6501E12CF12C65
:1004E0008701EA942AE030E040E050E00E94940165
:1004F0000F900F900F900F90862F21C06330F1F472
:10050000682F70E080E090E01F921F921F9224E617
:100510002F93A12CB12C6501E12CF12C8701EA94D9
:100520002CE030E040E050E00E9494010F900F90EA
:100530000F900F90862F03C080E001C080E01F91D4
:100540000F91FF90EF90DF90CF90BF90AF90089504
:10055000611106C0843B60F4873960F480E008953F
:10056000613051F4843B50F4873950F483E00895AE
:1005700081E0089584E0089580E0089582E0089580
:1005800084E0089580B78B7F80BF87B38B7F87BB64
:1005900088B3876088BB0895CF93DF931F92CDB750
:1005A000DEB70E942F0687B3886087BB63E48AE2C8
:1005B0000E94C90561EB89E20E94C90565E088E2F5
:1005C0000E94C90563E08BE20E94C9058FEF9FE896
:1005D0000197F1F700C0000040E06FEF8CE20E944D
:1005E000F6058FEF9FE80197F1F700C000006FEF6D
:1005F00080E60E94C9056FEF80E70E94C905F89464
:1006000085B7826085BF85B78E7F85BF8BB78068D1
:100610008BBF81B3877F81BB78948FEF9FE8019771
:10062000F1F700C0000060E08FE00E94C90581E0A2
:100630008983BE016F5F7F4F8EE00E94180689811B
:10064000807E803421F48DE091E00E941A0A898135
:10065000807E21F488E391E00E941A0A0F90DF91D6
:10066000CF910895EF92FF920F931F93CF93DF9353
:10067000CDB7DEB72B970FB6F894DEBF0FBECDBF58
:10068000E982FA820B831C832D833E834F83588734
:1006900069877A878B8709811A81B801687F7770AB
:1006A00076956795769567957695679581E30E942F
:1006B000C905602F6295660F607E82E30E94C905BE
:1006C000FB806F2D85E30E94C90500E010E00DC09E
:1006D000E4E0F0E0EC0FFD1FE00FF11F608186E326
:1006E000800F0E94C9050F5F1F4F8F2D90E00817E4
:1006F000190774F380E00E94DD052B960FB6F8947D
:10070000DEBF0FBECDBFDF91CF911F910F91FF9044
:10071000EF900895FF920F931F93CF93DF938C0177
:1007200061112EC082E60E94B705C82FC07E81E607
:100730000E94B70590E0880F991F880F991F880FB6
:10074000991FC295C695C7708C2BF8019183808341
:1007500085E60E94B705F82EF8018283C0E0D0E05C
:1007600009C08C2F8A590E94B705F801EC0FFD1FB4
:10077000838321968F2D90E0C817D90794F32FC05B
:10078000613069F582E70E94B705C82FC07E81E716
:100790000E94B70590E0880F991F880F991F880F56
:1007A000991FC295C695C7708C2BF80191838083E1
:1007B00085E70E94B705F82EF8018283C0E0D0E0FB
:1007C00009C08C2F8A580E94B705F801EC0FFD1F55
:1007D000838321968F2D90E0C817D90794F3C80121
:1007E000DF91CF911F910F91FF9008951F920F926B
:1007F0000FB60F9211241F932F933F934F935F9344
:100800006F937F938F939F93AF93BF93EF93FF93D8
:10081000CF93DF93CDB7DEB72B97DEBFCDBF8CE292
:100820000E94B705982F927080FF4CC060E0CE0107
:1008300001960E948A038BE0FE013196A4E1B4E0A8
:1008400001900D928A95E1F781E691E00E941A0AE3
:100850008EE891E09F938F930E94FD090F900F9077
:1008600010E009C0E12FF0E0EC5EFB4F838190E0E7
:100870000E94130A1F5F80911604181798F31F92A5
:100880008F938DEA91E09F938F930E94FD09E4E19D
:10089000F4E081818F9380818F9385EC91E09F9329
:1008A0008F930E94FD0980EA92E00E941A0A40E0BC
:1008B00061E08CE20E94F6050FB6F894DEBF0FBE31
:1008C000CDBF52C0992309F44FC061E0CE0101961B
:1008D0000E948A038BE0FE013196A0E2B4E0019011
:1008E0000D928A95E1F781E691E00E941A0A8EEC5A
:1008F00091E09F938F930E94FD090F900F9010E05D
:1009000009C0E12FF0E0E05EFB4F838190E00E94A0
:10091000130A1F5F80912204181798F31F928F9378
:100920008DEA91E09F938F930E94FD09E0E2F4E04D
:1009300081818F9380818F9385EC91E09F938F933A
:100940000E94FD0980EA92E00E941A0A80EA92E081
:100950000E941A0A40E062E08CE20E94F6050FB69F
:10096000F894DEBF0FBECDBF2B960FB6F894DEBF56
:100970000FBECDBFDF91CF91FF91EF91BF91AF91AE
:100980009F918F917F916F915F914F913F912F91A7
:100990001F910F900FBE0F901F9018956F927F922E
:1009A0008F929F92AF92BF92CF92DF92EF92FF927F
:1009B0000F931F93CF93DF93CDB7DEB72B970FB66F
:1009C000F894DEBF0FBECDBF80E00E944F0160E013
:1009D0000E94D501682E81E00E944F0161E00E94D3
:1009E000D501782E82E00E944F01882E83E00E947C
:1009F0004F01982E86B38470B82E86B38270C82EAD
:100A000086B38170D82E86E0E82E89831A82A09062
:100A10002B04F12C08E0162D272D382D492D5B2DA8
:100A20006C2D7D2D8A2D0E9432038DEE91E00E9467
:100A30001A0A1F926F9282E192E09F938F930E9415
:100A4000FD091F927F928FE192E09F938F930E9406
:100A5000FD091F928F928CE292E09F938F930E94E8
:100A6000FD091F929F9284E492E09F938F930E94CE
:100A7000FD091F92BF928BE592E09F938F930E9496
:100A8000FD091F92CF928CE692E09F938F930E9474
:100A9000FD091F92DF928FE792E09F938F930E9450
:100AA000FD091F9288E08F9381E992E09F938F93D5
:100AB0000E94FD090FB6F894DEBF0FBECDBF1F9296
:100AC00086E08F9385EC91E09F938F930E94FD09C0
:100AD0001F92AF9282EA92E09F938F930E94FD094A
:100AE0000FB6F894DEBF0FBECDBF2B960FB6F894AD
:100AF000DEBF0FBECDBFDF91CF911F910F91FF9051
:100B0000EF90DF90CF90BF90AF909F908F907F90AD
:100B10006F9008950E9436090E94C2020E9445010A
:100B20000E942C090E94A5060E9463062FEF8FEFFA
:100B30009EE0215080409040E1F700C0000060E05E
:100B400080E00E9481060E94CC0285EB92E00E9428
:100B50001A0A2FEF8FE791E0215080409040E1F793
:100B600000C000C00E94CE040E941208F2CFCF93B2
:100B7000C82F0E94060983E00E9413098C2F0E944F
:100B800013090E941709C82F0E940A098C2FCF91C0
:100B90000895CF93DF93D82FC62F0E94060982E0D5
:100BA0000E9413098D2F0E9413098C2F0E94130994
:100BB0000E940A09DF91CF910895CF93C82F0E9418
:100BC0000609C11104C081E80E9413090BC0C1309D
:100BD00021F482E80E94130905C0C23019F484E8A8
:100BE0000E9413090E940A09CF9108951F93CF9381
:100BF000DF93182FD62FC42F0E94060985E00E948C
:100C00001309812F0E9413098D2F0E9413098C2F25
:100C10000E9413090E940A09DF91CF911F91089544
:100C20000E94060980EC0E9413090E940A09089597
:100C30001F93CF93DF93182FEB010E94060983E0E7
:100C40000E941309812F0E9413090E941709182F6F
:100C50000E940A091883DF91CF911F910895CF93C5
:100C6000DF931F92CDB7DEB781E089830E940E0922
:100C70000E941006BE016F5F7F4F8EE00E94180633
:100C80008981807E803831F088EE92E00E941A0AD5
:100C900081E009C0803831F48DE193E00E941A0AA6
:100CA00080E001C080E00F90DF91CF910895E09146
:100CB0000801F091090180830895E0910601F09107
:100CC000070180830895CF93DF93C0E0D0E013C085
:100CD0008C2F80550E94570680E090E008C0E0917C
:100CE0000601F0910701EC0FFD1F1082019680387C
:100CF0009105ACF32196C830D10554F3DF91CF9123
:100D00000895CF93DF93D82FC62F82E20E94570613
:100D10008D2F0E94570687E00E94570681E20E94AD
:100D200057068C2F0E9457068FE70E945706DF91C7
:100D3000CF91089560E080E00E9481060E946306E2
:100D400060E080E00E94810608958EEA0E945706C6
:100D500081EA0E9457068AED0E94570682E10E94AE
:100D6000570688EC0E94570688EA0E9457068FE3D0
:100D70000E94570685ED0E94570680E80E9457069C
:100D800081E80E94570680E50E94570689ED0E947F
:100D9000570681E20E94570680E20E94570682E0D1
:100DA0000E9457068BED0E94570680E30E9457066B
:100DB0008DEA0E94570680E00E94570684EA0E944E
:100DC000570686EA0E9457068FEA0E945706089542
:100DD0001F93CF93DF9310EE180FC0E0D0E011C047
:100DE000812F90E0FC01EE0FFF1FEE0FFF1FE80FB9
:100DF000F91FEC0FFD1FE059FF4F84910E945D0623
:100E00002196C530D10564F3DF91CF911F910895EC
:100E10000E94810688E10E945D0688E10E945D06CD
:100E20008EE70E945D068CE30E945D0688E10E94C9
:100E30005D060895EF92FF920F931F93CF93DF9378
:100E40007C01FC0101900020E9F731978F01081B1C
:100E5000190BC0E0D0E007C0F701EC0FFD1F808147
:100E60000E94E8062196C8019927C817D907A4F35C
:100E7000DF91CF911F910F91FF90EF900895809196
:100E80001304823051F420910C0190910A0129132E
:100E900004C090911204992321F090911004913094
:100EA00069F41092130483E080930C0180930B018A
:100EB00084E080930A0110922B040895811115C0DB
:100EC00020910C0190910B0129130FC090911204F5
:100ED00091110BC081E08093130493E090930B0178
:100EE00090930A0180932B040895811104C090917E
:100EF0000C01943031F08330A1F490910C019630C4
:100F000081F49091120491110CC082E0809313043B
:100F100083E080930C0180930B0184E080930A01AD
:100F2000089590910C01933081F4909112049111E5
:100F30000CC0823051F483E08093130480930C0141
:100F400080930B0186E080930A01089580E00E945F
:100F50004F0161E00E94A80296B392FB992790F995
:100F600090931204823089F480910C018150809317
:100F70000C0190910B01891710F490930C0160E023
:100F800080910C010E94080718C0833089F4809179
:100F90000C018F5F80930C0190910A01981710F457
:100FA00090930C0160E080910C010E94080705C03D
:100FB00060E080910C010E9408072FEF8FE791E01D
:100FC000215080409040E1F700C000C0089580911A
:100FD0000C01833061F490911204911108C090913A
:100FE0001304933021F481E0809311040895843038
:100FF00061F490911204911108C090911304933000
:1010000021F482E0809311040895853051F4809199
:101010001204811106C080911304833011F480936F
:10102000110408950E94A6070E943F070E94E70747
:1010300080911304811131C060E00E9481060E94FA
:101040009A0668E280E00E9481068EE493E00E94A6
:101050001A0768E281E00E94810688E593E00E9419
:101060001A0768E283E00E94810682E693E00E940C
:101070001A0768E284E00E9481068DE693E00E94F0
:101080001A0780911004813041F468E286E00E94E2
:10109000810686E793E00E941A078091130481304D
:1010A000D1F560E080E00E9481060E949A0663E22A
:1010B00083E00E94810684E893E00E941A078091F1
:1010C0001104813049F463E285E00E94810681E9E0
:1010D00093E00E941A070895823049F463E285E0A4
:1010E0000E9481068FE993E00E941A0708958330D9
:1010F00049F463E285E00E9481068DEA93E00E9454
:101100001A07089563E285E00E9481068BEB93E065
:101110000E941A070895823039F560E080E00E944D
:1011200081060E949A0668E280E00E9481068EE4B1
:1011300093E00E941A0768E281E00E9481068DE632
:1011400093E00E941A0768E283E00E9481068EEC19
:1011500093E00E941A0768E284E00E9481068FED06
:1011600093E00E941A070895833009F04EC060E0B2
:1011700080E00E9481060E949A0668E280E00E9458
:1011800081068EE493E00E941A0768E281E00E94E3
:1011900081068EEC93E00E941A0768E283E00E94C9
:1011A000810680911104813021F46EE183E00E9478
:1011B00008078CEE93E00E941A0768E284E00E9420
:1011C000810680911104823021F46EE184E00E9456
:1011D000080782EF93E00E941A0768E285E00E9408
:1011E000810680911104833021F46EE185E00E9434
:1011F000080788EF93E00E941A0768E286E00E94E1
:1012000081068EEF93E00E941A07089588B38F7EBF
:1012100088BB089588B3806188BB089580EB87BB45
:1012200081E58DB908958FB9779BFECF08958FEF33
:101230008FB9779BFECF8FB108955D9BFECF8CB9A0
:1012400008955F9BFECF8CB1089561E279E08DE156
:1012500099E00E94B209089510BC8FE189B988E134
:101260008AB98EE880BD0E942509089585B78068F7
:1012700085BF80B7806280BF0895860F971FFC01ED
:1012800040830895860F971FFC0180810895DB013C
:101290008F939F930E947609BF91AF91A29F800D7B
:1012A000911DA39F900DB29F900D11240895052EBE
:1012B00097FB1EF400940E946E0957FD07D00E9410
:1012C000810907FC03D04EF40C946E0950954095AB
:1012D000309521953F4F4F4F5F4F089590958095E2
:1012E000709561957F4F8F4F9F4F08950E94A3097E
:1012F000A59F900DB49F900DA49F800D911D11246A
:101300000895A1E21A2EAA1BBB1BFD010DC0AA1F46
:10131000BB1FEE1FFF1FA217B307E407F50720F05E
:10132000A21BB30BE40BF50B661F771F881F991FD9
:101330001A9469F760957095809590959B01AC0122
:10134000BD01CF010895A29FB001B39FC001A39F2B
:10135000700D811D1124911DB29F700D811D1124EE
:10136000911D08950F931F93CF93DF93009731F44E
:101370006115710519F480E090E03AC08B01EC0131
:101380006EE070E081E090E00E942B0CFC01892B64
:1013900091F380E883830115110571F013870287AB
:1013A00081E8838380912C0490912D04892B21F472
:1013B000F0932D04E0932C042097C9F0D187C087C7
:1013C00083818260838380912E0490912F04892BE6
:1013D00071F4F0932F04E0932E04809130049091E7
:1013E0003104892B21F4F0933104E0933004CF01D0
:1013F000DF91CF911F910F910895A0E0B0E0E3E05D
:10140000FAE00C942F0EAE014B5F5F4FFA01619131
:101410007191AF0180912E0490912F040E944A0A8D
:10142000E2E00C944B0E60912E0470912F040E9408
:10143000850D08950F931F93CF93DF93E0912E04B2
:10144000F0912F04238121FF1BC08C01D0E0C0E06C
:10145000F80181918F0160912E0470912F04DB01BE
:101460001896ED91FC911997882331F00995892BF5
:1014700079F3DFEFCFEFECCF8AE00995892B19F0F4
:101480008FEF9FEF02C08D2F9C2FDF91CF911F9187
:101490000F910895ABE0B0E0E0E5FAE00C941F0E88
:1014A0006C017B018A01FC0117821682838181FF16
:1014B000CCC1CE0101963C01F6019381F70193FD69
:1014C000859193FF81917F01882309F4BAC1853208
:1014D00039F493FD859193FF81917F01853229F441
:1014E000B60190E00E94850DE7CF912C212C312C84
:1014F000FFE1F315D8F08B3279F038F4803279F0CF
:101500008332A1F4232D20611DC08D3261F0803320
:1015100069F4232D216016C0832D8260382EE32DBF
:10152000E4603E2E2AC0F32DF8601DC037FC2DC0AC
:1015300020ED280F2A3040F08E32B9F436FC81C1FC
:10154000232D2064322E19C036FE06C08AE0989EF4
:10155000200D1124922E11C0EAE02E9E200D1124A0
:10156000222EF32DF0623F2E08C08C3621F4832DFD
:101570008068382E02C0883641F4F70193FD8591CA
:1015800093FF81917F018111B3CF982F9F7D955457
:10159000933028F40C5F1F4F9FE399830DC083366F
:1015A00031F0833771F0833509F059C021C0F8015B
:1015B000808189830E5F1F4F88248394912C53016F
:1015C00013C02801F2E04F0E511CF801A080B18039
:1015D00036FE03C0692D70E002C06FEF7FEFC501DA
:1015E0000E947A0D4C018201F32DFF773F2E16C029
:1015F000280122E0420E511CF801A080B18036FE85
:1016000003C0692D70E002C06FEF7FEFC5010E943B
:10161000680D4C01F32DF0683F2E820133FC1BC096
:10162000822D90E088169906B0F4B60180E290E031
:101630000E94850D2A94F4CFF50137FC859137FE81
:1016400081915F01B60190E00E94850D21102A94DE
:1016500021E0821A91088114910471F7E8C0843660
:1016600011F0893641F5F80137FE07C060817181BC
:10167000828193810C5F1F4F08C060817181072EAA
:10168000000C880B990B0E5F1F4FF32DFF763F2E3A
:1016900097FF09C090958095709561957F4F8F4F0A
:1016A0009F4FF0683F2E2AE030E0A3010E94C10D59
:1016B000882E861845C0853731F4232D2F7EB22E13
:1016C0002AE030E025C0932D997FB92E8F36C1F0E6
:1016D00018F4883579F0B5C0803719F0883721F0D3
:1016E000B0C0E92FE061BE2EB4FE0DC0FB2DF4604A
:1016F000BF2E09C034FE0AC0292F2660B22E06C0B4
:1017000028E030E005C020E130E002C020E132E016
:10171000F801B7FE07C060817181828193810C5FFF
:101720001F4F06C06081718180E090E00E5F1F4F07
:10173000A3010E94C10D882E8618FB2DFF773F2E36
:1017400036FE0DC0232D2E7FA22E891458F434FEB0
:101750000BC032FC09C0832D8E7EA82E05C0B82C8C
:10176000A32C03C0B82C01C0B92CA4FE0FC0FE01ED
:10177000E80DF11D8081803321F49A2D997EA92EE8
:1017800009C0A2FE06C0B394B39404C08A2D867823
:1017900009F0B394A3FC11C0A0FE06C0B21488F4F3
:1017A000280C922C9B180EC0B21460F4B60180E293
:1017B00090E00E94850DB394F7CFB21418F42B1863
:1017C00002C0982C212CA4FE10C0B60180E390E04A
:1017D0000E94850DA2FE17C0A1FC03C088E790E01F
:1017E00002C088E590E0B6010CC08A2D867859F0D9
:1017F000A1FE02C08BE201C080E2A7FC8DE2B6012F
:1018000090E00E94850D891438F4B60180E390E0E1
:101810000E94850D9A94F7CF8A94F301E80DF11D8B
:101820008081B60190E00E94850D8110F5CF2220C5
:1018300009F442CEB60180E290E00E94850D2A9420
:10184000F6CFF6018681978102C08FEF9FEF2B962E
:10185000E2E10C943B0E0F931F93CF93DF93869F8F
:101860008001879F100D969F100D1124C8010E94C2
:10187000470CEC01009729F0A80160E070E00E949D
:10188000730DCE01DF91CF911F910F9108950F93AA
:101890001F93CF93DF938230910510F482E090E0A4
:1018A000E0913404F091350420E030E0A0E0B0E0B5
:1018B000309719F1408151810281138148175907EE
:1018C000C8F08417950769F4109731F012960C93BD
:1018D000129713961C9327C0009334041093350479
:1018E00022C02115310519F04217530718F49A0147
:1018F000BD01EF01DF01F801DBCF21153105F9F062
:10190000281B390B2430310580F48A819B816115B5
:10191000710521F0FB019383828304C09093350409
:1019200080933404FE01329644C0FE01E20FF31F9F
:101930008193919322503109398328833AC02091B1
:10194000320430913304232B41F420910201309171
:10195000030130933304209332042091000130912D
:1019600001012115310541F42DB73EB74091040125
:1019700050910501241B350BE0913204F0913304A2
:10198000E217F307A0F42E1B3F0B2817390778F056
:10199000AC014E5F5F4F2417350748F04E0F5F1FB5
:1019A00050933304409332048193919302C0E0E05A
:1019B000F0E0CF01DF91CF911F910F910895CF9368
:1019C000DF93009709F481C0FC01329713821282E1
:1019D000A0913404B0913504109781F420813181B5
:1019E000820F931F20913204309133042817390756
:1019F00051F5F0933304E093320467C0ED0120E029
:101A000030E0CE17DF0740F44A815B819E0141152B
:101A10005105F1F0EA01F5CFD383C28340815181B2
:101A2000840F951FC817D90759F488819981840FAD
:101A3000951F0296918380838A819B819383828301
:101A40002115310529F4F0933504E09334043DC0A9
:101A5000E901FB83EA8349915991C40FD51FEC1723
:101A6000FD0761F480819181840F951F0296E90141
:101A700099838883828193819B838A83E0E0F0E06D
:101A800012968D919C911397009719F0FD01DC013E
:101A9000F7CF8D919C9111979D012E5F3F4F820F43
:101AA000931F20913204309133042817390769F4C9
:101AB000309729F4109235041092340402C0138236
:101AC0001282B0933304A0933204DF91CF91089532
:101AD000FC010590615070400110D8F780959095F9
:101AE0008E0F9F1F0895DC0101C06D93415050403F
:101AF000E0F70895FC016150704001900110D8F7A3
:101B0000809590958E0F9F1F08950F931F93CF93ED
:101B1000DF93FB01238121FD03C08FEF9FEF2CC0DA
:101B200022FF16C046815781248135814217530711
:101B300044F4A081B1819D012F5F3F4F3183208309
:101B40008C93268137812F5F3F4F3783268314C0C4
:101B50008B01EC01FB010084F185E02D0995892BB7
:101B6000E1F6D80116968D919C91179701961796DC
:101B70009C938E931697CE01DF91CF911F910F9179
:101B80000895FA01AA27283051F1203181F1E89413
:101B90006F936E7F6E5F7F4F8F4F9F4FAF4FB1E060
:101BA0003ED0B4E03CD0670F781F891F9A1FA11D5B
:101BB000680F791F8A1F911DA11D6A0F711D811D5C
:101BC000911DA11D20D009F468943F912AE0269F21
:101BD00011243019305D3193DEF6CF010895462F80
:101BE0004770405D4193B3E00FD0C9F7F6CF462F61
:101BF0004F70405D4A3318F0495D31FD40524193CA
:101C000002D0A9F7EACFB4E0A69597958795779586
:101C10006795BA95C9F700976105710508959B010D
:101C2000AC010A2E06945795479537952795BA9596
:101C3000C9F7620F731F841F951FA01D08952F926F
:101C40003F924F925F926F927F928F929F92AF924C
:101C5000BF92CF92DF92EF92FF920F931F93CF9399
:101C6000DF93CDB7DEB7CA1BDB0B0FB6F894DEBF30
:101C70000FBECDBF09942A88398848885F846E8456
:101C80007D848C849B84AA84B984C884DF80EE80A0
:101C9000FD800C811B81AA81B981CE0FD11D0FB6A9
:101CA000F894DEBF0FBECDBFED010895F894FFCFCD
:101CB00000003604200000120010040303204D43EE
:101CC000503235313520697320494E206C6F6F706A
:101CD0006261636B206D6F6465206166746572205C
:101CE000696E697420210D00204D43503235313525
:101CF00020697320494E204E4F524D414C206D6F4C
:101D0000646520616674657220696E697420210DB6
:101D1000000D0A23232323232323232323232323E5
:101D200023232323204E4557204D455353414745F8
:101D30002023232323232323232323230D0052653E
:101D4000636569766564206D657373616765206F8F
:101D50006E2062756666657220313A09000D0A7759
:101D60006974682064617461206C656E67743A09F7
:101D700025640A0D0049443A0925640D0A0052659C
:101D8000636569766564206D657373616765206F4F
:101D90006E2062756666657220323A09000D0A236C
:101DA000232323232323204E4557204D45535341BE
:101DB00047452053454E44542023232323232323E4
:101DC0000D004461746120593A0925690D0A0044E7
:101DD00061746120583A0925690D0A0044617461F3
:101DE00020526967687420736C696465723A0925CA
:101DF000690D0A0044617461204C65667420736C3F
:101E0000696465723A0925690D0A004A6F79206292
:101E10007574746F6E3A0925690D0A005269676816
:101E20007420627574746F6E3A0925690D0A004C4E
:101E300065667420627574746F6E3A0925690D0ABF
:101E40000044617461206C656E67743A0925640A08
:101E50000D0047616D6520747269676765723A09A4
:101E600025640D0A000D0A23232323232323232380
:101E70002323232323232320496E697420636F6D5A
:101E8000706C6574652023232323232323232323BA
:101E90002323232323230D00204D43503235313596
:101EA000206973204E4F5420696E20636F6E6669FF
:101EB0006775726174696F6E206D6F64652061660D
:101EC00074657220726573657420210D00204D4386
:101ED000503235313520697320494E20636F6E666C
:101EE000696775726174696F6E206D6F64652061DA
:101EF0006674657220726573657420210D00504907
:101F00004E4720504F4E47004D61696E206D656E03
:101F1000750053746172742067616D650053657458
:101F200074696E6773004869676873636F72653AB6
:101F30002031300047414D452052554E4E494E47C5
:101F400000536163697420706C6179696E67004544
:101F50006C69617320706C6179696E6700502D6DDA
:101F6000616E20706C6179696E67004572696B20E3
:101F70004B6569746820706C6179696E67005365A0
:101F80006C6563742063686172616374657200429A
:101F900061636B20746F206D656E750053616369BA
:101FA0007400456C69617300502D6D616E00426173
:101FB000636B20746F2073657474696E67730000BF
:00000001FF
