S017000047727570706533365F4E6F64655F322E73726563BB
S214080000E0080020BD030800B9030800B90308008B
S214080010B9030800B9030800B90308000000000087
S214080020000000000000000000000000B9030800FF
S214080030B903080000000000B9030800A903080077
S214080040B9030800B9030800B9030800B903080093
S214080050B9030800B9030800B9030800B903080083
S214080060A90B0800B903080000000000B90308003F
S214080070B9030800B9030800B90308000000000027
S21408008000000000B9030800B9030800B903080017
S214080090B9030800B9030800B9030800B903080043
S2140800A0B903080000000000B9030800CD040800E2
S2140800B0B9030800B9030800B9030800B903080023
S2140800C0B9030800B9030800B9030800B903080013
S2140800D0B9030800B9030800B9030800B903080003
S2140800E0B9030800B9030800B9030800E1040800CA
S2140800F0B903080010B5054C237833B9044B13B17F
S2140801000448AFF300800123237010BD3404002098
S21408011000000000481608000C4B43B10C4810B508
S2140801200C49AFF300800C48036823B910BD0A4891
S214080130036833B97047094B002BF7D0BDE8104069
S2140801401847064B002BF5D0184700BF00000000E4
S214080150481608003804002048160800000000006A
S214080160084AD2F8003143F02003C2F80031064BA3
S2140801701A6942F080021A615A6842F080025A6090
S214080180704700BF00060E4000000C40F0B4571839
S214080190082FD4BF00230123082998BF082A5CD853
S2140801A00D46002B59D12E4A136823F0010313601D
S2140801B013692C4B4FF440745C641C6F24F00304E2
S2140801C01C6703245C605C66A3F50063264CC3F8D2
S2140801D00C41D3F8004144F40064C3F80041506170
S2140801E0002419E01E4801F110035B01C21800261E
S2140801F0566000EB41124FF00056C2F808624FF006
S2140802008076C650D2F81C3243F40003C2F81C327B
S21408021001238B401C430131B942E3DD00230DE086
S2140802200F4901EB43124FF00050C2F8080203F1E1
S214080230100252014FF0407088500133AB42EFDB9A
S214080240074B5C604FF40061084A51601A6842F038
S21408025001021A600020F0BC70470120FBE700BFCF
S21408026000400B40000E0E402B10001000E100E08E
S21408027008B502220121014B984708BD8D010800E8
S21408028008B50248024B984708BD00BF651129000B
S214080290710208004B0103F1402303F53023D3F81D
S2140802A0103213F4000F33D070B44B0103F140231F
S2140802B003F53023D3F81442D3F81822D3F808529B
S2140802C0C5F38A450580D3F81052C5F303458570F3
S2140802D0002303E0C618F270120A0133AB4205DAAF
S2140802E0032BF7DCC618F470240AF6E7094B01F16D
S2140802F0100252014FF08070985003EB4111D1F86C
S2140803001C3243F40003C1F81C32002070BC70474E
S2140803100120704700400B400A4AD2F8003143F0EB
S2140803204003C2F80031084B1A6942F002021A610B
S2140803305A6842F480725A605A6842F480325A60A8
S214080340704700BF00060E4000800C40C0EB00302F
S214080350054B83FB00230344C017C0EBE31080B2B1
S214080360024B1862704700BF8180808000800C4076
S2140803700A4B53225A60F021094A82F823100022B9
S2140803809A6007221A60074B1860064B1B68002BFA
S214080390FBD10022014B1A60704700BF10E000E056
S2140803A000ED00E050040020024A1368013B136089
S2140803B0704700BF50040020FEE7000008B5114B48
S2140803C0114A9A4209D00F4B0F4A03E01168196088
S2140803D0043304320D498B42F8D30D4B02E0002259
S2140803E01A6004330B4A9342F9D30B4B23F060434D
S2140803F023F07F03094A9360094B9847094B9847AF
S214080400FEE700BF0000002048160800340400205D
S21408041034040020E00400200000080000ED00E09E
S214080420F5130800A10508004FF48063204A1360FE
S21408043002F5007213601F4B1B6A13F0807F07D10A
S2140804401D4A1C4B1A621B4B9B6E13F0010FFAD009
S2140804501A4A184B1A62174B9B6E13F4803FFAD051
S214080460144A136B23F0030343F001031363114B81
S2140804709B6E13F0080FFAD0114A0E4B9A620D4B7A
S2140804809B6E13F0020FFAD011220A4B1A63094B1F
S2140804909B6E13F0080FFAD01222064B1A63054B10
S2140804A09B6E13F0080FFAD0064A074B1A6070477F
S2140804B0000A0E4000060E400908370009083701F2
S2140804C0013F0D2000BD01050000002008B50248C8
S2140804D0024B984708BD00BF641508006D0A08005F
S2140804E010B5124B1C6914F0060F09D014F0020F51
S2140804F012D114F0040F14D002210D480D4B984762
S21408050014F0010F02D00122084B9A604FF40062E3
S214080510094BC3F8842110BD01210548054B9847AF
S214080520EEE70648064B9847EAE700BF00400B4050
S214080530680400209502080000E100E07015080035
S2140805406D0A080070B582B005460C460F4BB3F925
S21408055000208B1A002BB8BF5B420D4909788B42E6
S21408056000DAD4B240F6FA2300930023FF22194695
S2140805702046084EB047294600B2074B984700B2B7
S214080580064B9847014B1C8002B070BD64040020DF
S21408059004000020F10A080049070800A50608001C
S2140805A008B5114B98474FF40042104B5A60104B51
S2140805B09847104B9847104B9847104B9847104B46
S2140805C09847104B9847104B98471048104B984739
S2140805D0104CA17910480E4B9847104B9847A179B4
S2140805E00F4B9847F4E700BF29040800501A0E403E
S2140805F01D0B080081020800910A08006101080026
S2140806001903080025060800090B08009C150800B1
S2140806106D0A080068040020B0150800FD060800EA
S2140806204505080070B516494FF480430B61154C14
S214080630226840F20760024322602369034323616D
S2140806404FF400530B61104B1A6842F4FF721A609D
S2140806501A6C42F4FF721A644FF4007626634FF45D
S2140806608063236309480A4DA8476420094B9847C6
S21408067009480A4B984766630948A84770BD00BFF3
S21408068000060E4000140E4000120E40B815080072
S2140806906D0A08004D030800404B4C007103080023
S2140806A0E015080008B5002810DD0122104B1A7066
S2140806B00F4B1B7883B10F4B4FF400721A634FF43D
S2140806C080625A6380B20C4B984708BD0028EFDA60
S2140806D00022074B1A70EBE7064B4FF400721A63BA
S2140806E04FF480621A6380B2034B984708BD00BF78
S2140806F07404002000140E404D0308002DE9F8434A
S2140807000E4D01266E634FF00409C5F83490142088
S214080710DFF83080C0470A4FFC6B04F4FF74C5F856
S21408072030901420C047F86B00F4FF702E63022345
S2140807302B63240224B22043BDE8F88300140E403D
S21408074000120E40710308002DE9F0470E461E4DB4
S21408075029808CB2041BA4B2AC80B5F90670DFF809
S21408076070A03846D04716A3D3E90023DFF8648084
S214080770C04780468946B5F90A00D04742464B46E8
S214080780DFF85480C047114B984700B22881642888
S21408079007DC10F1640F06DA4FF69C720A4B1A81D2
S2140807A001E064222A81084BB3F9082090B220445D
S2140807B03C44DC805E805A8100B2BDE8F08700BF0A
S2140807C0FCA9F1D24D62503F58040020A51308003A
S2140807D0B50E0800810F08001D0C080008B5C8B241
S2140807E0014B984708BD00BF850B08002DE9F0416E
S2140807F007460E46151E02DD0A46002104E04FF0A5
S21408080020080EE00131013210780028FAD1A942FA
S21408081001DA6D1A00E0002513F0020F06D14FF03A
S214080820200813F001040AD0002410E04FF0300826
S214080830F7E7414638460D4B98470134013D002DF1
S214080840F7DC04E03846094B98470134013631781E
S2140808500029F7D105E041463846044B984701344D
S214080860013D002DF7DC2046BDE8F081DD070800D5
S214080870F0B585B007460C9851B11E460C4613B124
S2140808800A2A12D0002604AD002305F8013D18E018
S21408089030238DF8043000238DF805300B9B0A9A18
S2140808A001A938461B4CA04729E0002901DB002691
S2140808B0E9E74C420126E6E7303305F8013DB4FB8C
S2140808C0F2F44CB1B4FBF2F302FB1343092BF3DD4D
S2140808D0A0F13A010B44EFE756B10A9B1BB10B9BFC
S2140808E013F0020F0DD12D2305F8013C013D00261B
S2140808F00B9B0A9A29463846064CA047304405B052
S214080900F0BD2D213846044B98470A9B013B0A93B5
S214080910EEE700BFED070800DD070800F0B589B070
S21408092006460C460592002581E0A21C01238BE0B2
S214080930013443F002032278302AF9D0002206E078
S21408094002EB82025000A1F1300202440134217801
S214080950A1F13000C0B20928F2D9732918D0642949
S21408096022D078292FD058293CD0752949D0632918
S2140809705CD10599081D059009788DF81C10002192
S2140809808DF81D1007A93046344FB84705444DE08A
S2140809900599081D0590096821B130462F4FB847BC
S2140809A0054443E02E49F8E70599081D05900968AF
S2140809B0612002900193009201230A223046294FB3
S2140809C0B847054432E00599081D05900968612076
S2140809D0029001930092002310223046214FB84718
S2140809E0054423E00599081D0590096841200290F2
S2140809F0019300920023102230461A4FB847054448
S214080A0014E00599081D0590096861200290019375
S214080A10009200230A223046124FB847054405E0E4
S214080A20144621783046104B984701350134237810
S214080A3063B1252BF5D1621C63783BB1252BEFD02B
S214080A402D2B3FF472AF0023144674E716B13368B3
S214080A5000221A70284609B0F0BD00BFED0708004E
S214080A60F815080071080800DD0708000FB400B57F
S214080A7083B004AA52F8041B01920020034B98473F
S214080A8003B05DF804EB04B0704700BF1D0908000A
S214080A90144AD2F8003143F01003C2F80031124B62
S214080AA05A6842F400225A601A6F42F400221A6703
S214080AB040F20722A3F59923A3F5EC631A6040F2E7
S214080AC0B1720C331A60094AD2F8A43243F476732A
S214080AD043F00103C2F8A432536843F0200353607E
S214080AE0704700BF00060E4000120E400040094046
S214080AF010B4401A019CE41A04FB00F0521A90FB4A
S214080B00F2F0184410BC7047034B4FF080621A602E
S214080B101A611A661A63704700100E40164B0022B8
S214080B201A705A70154B4FF44071596459601A6F11
S214080B30186F024022F440721A6759664FF48072A2
S214080B40A3F500631A6103F50073AC21196040F23F
S214080B50232119624FF40061596040F20221C3F85C
S214080B6020114FF0FF31D960E121996004490A60ED
S214080B7050221A60704700BF78040020000E0E400E
S214080B8000E100E0074B5B6913F0020F08D0054B45
S214080B90D861044B5B6913F4007FFAD000207047D5
S214080BA00120704700080E4008B5154B5B6913F026
S214080BB0E00F03D04FF4A871114A116013F0010F2B
S214080BC012D010484278531C594203F03F0301F0F4
S214080BD03F0158BF4B4201788B4206D008498869C6
S214080BE008490A4490704B7008BD0748074B984759
S214080BF0044B5978024A92690B449A7008BD00BFA4
S214080C0000080E4078040020001608006D0A080048
S214080C1081F0004102E000BF83F0004330B54FEAA0
S214080C2041044FEA430594EA050F08BF90EA020F0D
S214080C301FBF54EA000C55EA020C7FEA645C7FEAA0
S214080C40655C00F0E2804FEA5454D4EB5555B8BFC3
S214080C506D420CDD2C4480EA020281EA030382EA34
S214080C60000083EA010180EA020281EA0303362DC6
S214080C7088BF30BD11F0004F4FEA01314FF4801C99
S214080C804CEA113102D0404261EB410113F0004FAB
S214080C904FEA03334CEA133302D0524263EB430362
S214080CA094EA050F00F0A780A4F10104D5F1200E00
S214080CB00DDB02FA0EFC22FA05F2801841F100015B
S214080CC003FA0EF2801843FA05F359410EE0A5F12F
S214080CD020050EF1200E012A03FA0EFC28BF4CF060
S214080CE0020C43FA05F3C01851EBE37101F0004516
S214080CF007D54FF0000EDCF1000C7EEB00006EEB23
S214080D000101B1F5801F1BD3B1F5001F0CD34908AC
S214080D105FEA30004FEA3C0C04F101044FEA445203
S214080D2012F5800F80F09A80BCF1004F08BF5FEA8A
S214080D30500C50F1000041EB045141EA050130BD6A
S214080D405FEA4C0C404141EB010111F4801FA4F10D
S214080D500104E9D191F0000F04BF01460020B1FA62
S214080D6081F308BF2033A3F10B03B3F120020CDA9A
S214080D700C3208DD02F1140CC2F10C0201FA0CF078
S214080D8021FA02F10CE002F11402D8BFC2F1200CDD
S214080D9001FA02F120FA0CFCDCBF41EA0C01904093
S214080DA0E41AA2BF01EB0451294330BD6FEA0404DC
S214080DB01F3C1CDA0C340EDC04F11404C4F12002C7
S214080DC020FA04F001FA02F340EA030021FA04F3D9
S214080DD045EA030130BDC4F10C04C4F1200220FA30
S214080DE002F001FA04F340EA0300294630BD21FA6E
S214080DF004F0294630BD94F0000F83F4801306BF34
S214080E0081F480110134013D4EE77FEA645C18BF27
S214080E107FEA655C29D094EA050F08BF90EA020FBE
S214080E2005D054EA000C04BF1946104630BD91EAB6
S214080E30030F1EBF0021002030BD5FEA545C05D1B9
S214080E404000494128BF41F0004130BD14F58004F8
S214080E503CBF01F5801130BD01F0004545F0FE416C
S214080E6041F470014FF0000030BD7FEA645C1ABFA1
S214080E70194610467FEA655C1CBF0B46024650EAD8
S214080E80013406BF52EA033591EA030F41F4002104
S214080E9030BD00BF90F0000F04BF0021704730B58A
S214080EA04FF4806404F132044FF000054FF000015F
S214080EB050E700BF90F0000F04BF0021704730B520
S214080EC04FF4806404F1320410F0004548BF4042F5
S214080ED04FF000013EE700BF42004FEAE2014FEA4A
S214080EE031014FEA02701FBF12F07F4393F07F4F25
S214080EF081F06051704792F0000F14BF93F07F4F57
S214080F00704730B54FF4607401F0004521F0004199
S214080F1020E700BF50EA010208BF704730B54FF01F
S214080F2000050AE050EA010208BF704730B511F024
S214080F30004502D5404261EB41014FF4806404F15C
S214080F4032045FEA915C3FF4DCAE4FF003025FEADE
S214080F50DC0C18BF03325FEADC0C18BF033202EB66
S214080F60DC02C2F1200300FA03FC20FA02F001FAC0
S214080F7003FE40EA0E0021FA02F11444C1E600BF5F
S214080F8070B54FF0FF0C4CF4E06C1CEA11541DBF12
S214080F901CEA135594EA0C0F95EA0C0F00F0DEF8DD
S214080FA02C4481EA030621EA4C5123EA4C5350EAC2
S214080FB0013518BF52EA033541F4801143F4801313
S214080FC038D0A0FB02CE4FF00005E1FB02E506F0A4
S214080FD00042E0FB03E54FF00006E1FB03569CF0F9
S214080FE0000F18BF4EF0010EA4F1FF04B6F5007FFF
S214080FF064F5407404D25FEA4E0E6D4146EB060671
S21408100042EAC62141EA55514FEAC52040EA5E50F9
S2140810104FEACE2EB4F1FD0C88BFBCF5E06F1ED8A3
S214081020BEF1004F08BF5FEA500E50F1000041EBDA
S214081030045170BD06F0004646EA010140EA020087
S21408104081EA0301B4EB5C04C2BFD4EB0C0541EAA9
S214081050045170BD41F480114FF0000E013C00F3BE
S214081060AB8014F1360FDEBF002001F0004170BDE2
S214081070C4F10004203C35DA0C341BDC04F11404FB
S214081080C4F1200500FA05F320FA04F001FA05F287
S21408109040EA020001F0004221F0004110EBD37054
S2140810A021FA04F642EB06015EEA430E08BF20EA80
S2140810B0D37070BDC4F10C04C4F1200500FA04F323
S2140810C020FA05F001FA04F240EA020001F00041B5
S2140810D010EBD37041F100015EEA430E08BF20EA28
S2140810E0D37070BDC4F1200500FA05F24EEA020E70
S2140810F020FA04F301FA05F243EA020321FA04F09F
S21408110001F0004121FA04F220EA020000EBD37055
S2140811105EEA430E08BF20EAD37070BD94F0000F55
S2140811200FD101F00046400041EB010111F4801F89
S21408113008BF013CF7D041EA060195F0000F18BF3A
S214081140704703F00046520043EB030313F4801F76
S21408115008BF013DF7D043EA0603704794EA0C0F30
S2140811600CEA135518BF95EA0C0F0CD050EA410646
S21408117018BF52EA4306D1D181EA030101F00041C3
S2140811804FF0000070BD50EA410606BF10461946EB
S21408119052EA430619D094EA0C0F02D150EA0136F7
S2140811A013D195EA0C0F05D152EA03361CBF104638
S2140811B019460AD181EA030101F0004141F0FE41D7
S2140811C041F470014FF0000070BD41F0FE4141F45B
S2140811D0780170BD70B54FF0FF0C4CF4E06C1CEA5B
S2140811E011541DBF1CEA135594EA0C0F95EA0C0F10
S2140811F000F0A7F8A4EB050481EA030E52EA0335CB
S2140812004FEA013100F088804FEA03334FF08055EB
S21408121045EA131343EA12634FEA022245EA111518
S21408122045EA10654FEA00260EF000419D4208BFC9
S214081230964244F1FD0404F5407402D25B084FEA76
S2140812403202B61A65EB03055B084FEA32024FF422
S21408125080104FF4002CB6EB020E75EB030E22BF7F
S214081260B61A754640EA0C005B084FEA3202B6EB3F
S214081270020E75EB030E22BFB61A754640EA5C00EE
S2140812805B084FEA3202B6EB020E75EB030E22BF7E
S214081290B61A754640EA9C005B084FEA3202B6EB7F
S2140812A0020E75EB030E22BFB61A754640EADC003E
S2140812B055EA060E18D04FEA051545EA16754FEAA0
S2140812C006164FEAC30343EA52734FEAC2025FEABE
S2140812D01C1CC0D111F4801F0BD141EA00014FF04D
S2140812E000004FF0004CB6E711F4801F04BF01431E
S2140812F00020B4F1FD0C88BFBCF5E06F3FF6AFAE3A
S214081300B5EB030C04BFB6EB020C5FEA500C50F1C9
S214081310000041EB045170BD0EF0004E4EEA11314C
S21408132014EB5C04C2BFD4EB0C0541EA045170BD53
S21408133041F480114FF0000E013C90E645EA060E97
S2140813408DE60CEA135594EA0C0F08BF95EA0C0FC5
S2140813503FF43BAF94EA0C0F0AD150EA01347FF40D
S21408136034AF95EA0C0F7FF425AF104619462CE7E4
S21408137095EA0C0F06D152EA03353FF4FDAE104647
S214081380194622E750EA410618BF52EA43067FF498
S214081390C5AE50EA41047FF40DAF52EA43057FF428
S2140813A0EBAE12E74FEA410212F5001215D211D53C
S2140813B06FF47873B3EB625212D94FEAC12343F045
S2140813C0004343EA505311F0004F23FA02F018BFC7
S2140813D0404270474FF00000704750EA013005D190
S2140813E011F0004008BF6FF0004070474FF0000053
S2140813F0704700BF70B50F4E0F4D761BB61018BF5E
S214081400002405D0013455F8043B9847A642F9D184
S2140814100A4E0B4D00F006F9761BB61018BF0024CE
S21408142006D0013455F8043B9847A642F9D170BD5A
S21408143070BD00BF301608003016080038160800C1
S21408144030160800024B13B1024800F005B8704782
S2140814500000000065140800002301461A461846D6
S21408146000F01EB838B50A4C0A4D641BA4100AD002
S21408147004F18043013B05EB8305013C55F804392C
S2140814809847002CF9D1BDE8384000F0D5B800BF21
S2140814904816080044160800704700BF704700BF8B
S2140814A02DE9F8432C4D0646286898460F4691467F
S2140814B0FFF7F2FF294B1C68D4F84831002B3ED0C2
S2140814C05A681F2A1CDC02F1010E76B1012103EBD3
S2140814D08204C4F88890D3F8880191400843022E05
S2140814E0C3F88801C4F8088123D00232C3F804E0A0
S2140814F0286843F82270FFF7D1FF0020BDE8F8837C
S214081500174B0BB34FF4C870AFF300800346D8B13F
S2140815100020D4F848114FF0010E586019600246B2
S214081520C4F84831C3F88801C3F88C01002EDCD013
S214081530CCE7D3F88C010143C3F88C11D5E704F542
S214081540A673C4F84831BBE72868FFF7A7FF4FF033
S214081550FF30BDE8F88300BF3004002020160800DE
S2140815600000000054433020747269676765740091
S21408157043414E30206D65737361676520617272F2
S2140815806976656420696E206E6F6E2D7573656466
S214081590206D61696C626F780A0D00000D0A496E4D
S2140815A0697420636F6D706C6574650A0D000000C1
S2140815B025640A0D000000000D0A4D6F76696E67F7
S2140815C02074726F6C6C657920746F207374617206
S2140815D07420706F736974696F6E0A0D00000000DE
S2140815E00D0A54726F6C6C657920696E20706F7383
S2140815F06974696F6E0A0D00286E756C6C29000098
S2140816004552523A20554152542052582062756627
S2140816106665722069732066756C6C0A0D0000009A
S21408162008000020F8B500BFF8BC08BC9E46704706
S2140816304514080019010800F8B500BFF8BC08BC36
S20C0816409E467047F5000800FD
S21408164800093D001900000000000000F402002010
S2140816585C030020C403002000000000000000000F
S2140816680000000000000000000000000000000065
S2140816780000000000000000000000000000000055
S2140816880000000000000000000000000000000045
S2140816980000000000000000000000000000000035
S2140816A80000000000000000000000000000000025
S2140816B80000000000000000000000000000000015
S2140816C80000000000000000000000000000000005
S2140816D800000000000000000000000000000000F5
S2140816E800000000000000000000000000000000E5
S2140816F801000000000000000E33CDAB34126DE682
S214081708ECDE05000B0000000000000000000000EA
S21408171800000000000000000000000000000000B4
S21408172800000000000000000000000000000000A4
S2140817380000000000000000000000000000000094
S2140817480000000000000000000000000000000084
S208081A78BC0400207D
S804080000F3
