S01900004279676765726E206772757070652033362E7372656301
S11300000C9438000C9455000C94EE020C9455009A
S11300100C9455000C9455000C9455000C94550008
S11300200C9455000C9455000C9455000C945500F8
S11300300C9455000C9455000C9455000C945500E8
S11300400C9455000C9455000C9455000C945500D8
S11300500C9455000C9455000C9455000C945500C8
S11300600C9455000C9455000C9455000C945500B8
S113007011241FBECFEFD4E0DEBFCDBF13E0A0E05C
S1130080B1E0E4E2F6E102C005900D92A833B107B5
S1130090D9F723E0A8E3B3E001C01D92A935B20764
S11300A0E1F70E9475040C94100B0C94000081B3CA
S11300B0806281BB80E48FBD89E08EBD81E081BF19
S11300C00895EF92FF920F931F93CF93DF9300D085
S11300D000D0CDB7DEB7082F40E060E070E080E0EC
S11300E094E10E94F70582E58A95F1F710E010C0CB
S11300F0E12EF12C60E070E080E094E10E94FC05C8
S1130100E1E0F0E0EC0FFD1FEE0DFF1D80831F5FAB
S1130110143070F3013041F028F0023039F003302C
S113012039F008C0898107C08A8105C08B8103C06A
S11301308C8101C080E00F900F900F900F90DF91A1
S1130140CF911F910F91FF90EF9008954F925F927E
S11301506F927F92AF92BF92CF92DF92EF92FF9213
S11301600F931F93CF93DF93CDB7DEB729013A01E5
S11301709B01AC01241935094609570989899A89D3
S1130180AB89BC89BC01CD016A197B098C099D0925
S11301900E940106A8019701241935094609570947
S11301A00E941106C601B501620F731F841F951FBB
S11301B0DF91CF911F910F91FF90EF90DF90CF903F
S11301C0BF90AF907F906F905F904F900895AF92E3
S11301D0BF92CF92DF92EF92FF920F931F93611120
S11301E041C0873A00F1682F70E080E090E01F92F0
S11301F01F921F9224E62F930F2EF2E3AF2EB12C01
S1130200C12CD12CF02DE12CF12C8701EA9420EAA9
S113021030E040E050E00E94A6000F900F900F9055
S11302200F90862F9EC0882309F498C0682F70E031
S113023080E090E01F921F921F9222E32F93A12C43
S1130240B12C65011FE9E12EF12C00E010E020E063
S113025030E0A9010E94A6000F900F900F900F901C
S1130260862F7FC06130F1F5873A00F1682F70E086
S113027080E090E01F921F921F9224E62F930F2E8E
S1130280F2E3AF2EB12CC12CD12CF02DE12CF12CAA
S11302908701EA9423EA30E040E050E00E94A6009F
S11302A00F900F900F900F90862F5BC0682F70E017
S11302B080E090E01F921F921F9222E32F93A12CC3
S11302C0B12C650112EAE12EF12C00E010E020E0EF
S11302D030E0A9010E94A6000F900F900F900F909C
S11302E0862F3FC06230E1F4682F70E080E090E038
S11302F01F921F921F9224E62F93A12CB12C65010B
S1130300E12CF12C8701EA942AE030E040E050E04F
S11303100E94A6000F900F900F900F90862F21C07F
S11303206330F1F4682F70E080E090E01F921F9238
S11303301F9224E62F93A12CB12C6501E12CF12C02
S11303408701EA942CE030E040E050E00E94A600EF
S11303500F900F900F900F90862F03C080E001C084
S113036080E01F910F91FF90EF90DF90CF90BF90AE
S1130370AF90089580B78B7F80BF87B38B7F87BB97
S113038088B3876088BB0895CF93DF931F92CDB75E
S1130390DEB70E94180587B3886087BB63E48AE2EE
S11303A00E94B20461EB89E20E94B20465E088E233
S11303B00E94B20463E08BE20E94B2048FEF9FE8D4
S11303C00197F1F700C0000040E06FEF8CE20E945B
S11303D0DF048FEF9FE80197F1F700C000006FEF93
S11303E080E60E94B2046FEF80E70E94B204F894A2
S11303F085B7826085BF85B78E7F85BF8BB78068E0
S11304008BBF81B3877F81BB78948FEF9FE801977F
S1130410F1F700C0000060E08FE00E94B20481E0C8
S11304208983BE016F5F7F4F8EE00E940105898141
S1130430807E803421F48AE091E00E94D406898190
S1130440807E21F485E391E00E94D4060F90DF9131
S1130450CF910895EF92FF920F931F93CF93DF9361
S1130460CDB7DEB72B970FB6F894DEBF0FBECDBF66
S1130470E982FA820B831C832D833E834F83588742
S113048069877A878B8709811A81B801687F7770B9
S113049076956795769567957695679581E30E943D
S11304A0B204602F6295660F607E82E30E94B204FC
S11304B0FB806F2D85E30E94B20400E010E00DC0C4
S11304C0E4E0F0E0EC0FFD1FE00FF11F608186E334
S11304D0800F0E94B2040F5F1F4F8F2D90E008170A
S11304E0190774F380E00E94C6042B960FB6F894A3
S11304F0DEBF0FBECDBFDF91CF911F910F91FF9053
S1130500EF900895FF920F931F93CF93DF938C0185
S113051061112EC082E60E94A004C82FC07E81E62D
S11305200E94A00490E0880F991F880F991F880FDC
S1130530991FC295C695C7708C2BF801918380834F
S113054085E60E94A004F82EF8018283C0E0D0E082
S113055009C08C2F8A590E94A004F801EC0FFD1FDA
S1130560838321968F2D90E0C817D90794F32FC069
S1130570613069F582E70E94A004C82FC07E81E73C
S11305800E94A00490E0880F991F880F991F880F7C
S1130590991FC295C695C7708C2BF80191838083EF
S11305A085E70E94A004F82EF8018283C0E0D0E021
S11305B009C08C2F8A580E94A004F801EC0FFD1F7B
S11305C0838321968F2D90E0C817D90794F3C8012F
S11305D0DF91CF911F910F91FF9008951F920F9279
S11305E00FB60F9211241F932F933F934F935F9352
S11305F06F937F938F939F93AF93BF93EF93FF93E7
S1130600CF93DF93CDB7DEB72B97DEBFCDBF8CE2A0
S11306100E94A004982F927080FF4CC060E0CE012D
S113062001960E9482028BE0FE013196A8E3B3E0BA
S113063001900D928A95E1F78EE591E00E94D4062F
S11306408BE891E09F938F930E94B7060F900F90D1
S113065010E009C0E12FF0E0E85CFC4F838190E0FA
S11306600E94CD061F5F80913A03181798F31F92DA
S11306708F938AEA91E09F938F930E94B706E8E3F1
S1130680F3E081818F9380818F9382EC91E09F933B
S11306908F930E94B7068DE992E00E94D40640E051
S11306A061E08CE20E94DF040FB6F894DEBF0FBE57
S11306B0CDBF52C0992309F44FC061E0CE01019629
S11306C00E9482028BE0FE013196A4E4B3E0019023
S11306D00D928A95E1F78EE591E00E94D4068BECA9
S11306E091E09F938F930E94B7060F900F9010E0B4
S11306F009C0E12FF0E0EC5BFC4F838190E00E94A5
S1130700CD061F5F80914603181798F31F928F93AD
S11307108AEA91E09F938F930E94B706E4E4F3E0A2
S113072081818F9380818F9382EC91E09F938F934B
S11307300E94B7068DE992E00E94D4068DE992E00A
S11307400E94D40640E062E08CE20E94DF040FB60F
S1130750F894DEBF0FBECDBF2B960FB6F894DEBF64
S11307600FBECDBFDF91CF91FF91EF91BF91AF91BC
S11307709F918F917F916F915F914F913F912F91B5
S11307801F910F900FBE0F901F9018957F928F921C
S11307909F92AF92BF92CF92DF92EF92FF920F930C
S11307A01F93CF93DF93CDB7DEB72B970FB6F89493
S11307B0DEBF0FBECDBF80E00E94610060E00E94FA
S11307C0E700782E81E00E94610061E00E94E7006A
S11307D0882E82E00E946100982E83E00E946100CE
S11307E0A82E86B38470B82E86B38270C82E86B3C2
S11307F08170D82E86E0E82E89831A82F12C07E0D6
S1130800172D282D392D4A2D5B2D6C2D7D2D8B8593
S11308100E942A028AEE91E00E94D4061F927F92DF
S11308208FE092E09F938F930E94B7061F928F925E
S11308308CE192E09F938F930E94B7061F929F9240
S113084089E292E09F938F930E94B7061F92AF9222
S113085081E492E09F938F930E94B7061F92BF9208
S113086088E592E09F938F930E94B7061F92CF92E0
S113087089E692E09F938F930E94B7061F92DF92BE
S11308808CE792E09F938F930E94B7061F9287E0B4
S11308908F938EE892E09F938F930E94B7060FB6D2
S11308A0F894DEBF0FBECDBF1F9286E08F9382EC1B
S11308B091E09F938F930E94B7060F900F900F9033
S11308C00F902B960FB6F894DEBF0FBECDBFDF910D
S11308D0CF911F910F91FF90EF90DF90CF90BF9039
S11308E0AF909F908F907F9008950E94F0050E9492
S11308F0BA010E9457000E94E6050E947D050E94ED
S113090046052FEF8FEF9EE0215080409040E1F7A5
S113091000C0000060E080E00E9464050E94C40101
S11309208FE992E00E94D4062FEF8FE791E02150E7
S113093080409040E1F700C000C00E94C603F4CF9D
S1130940CF93C82F0E94C00583E00E94CD058C2F51
S11309500E94CD050E94D105C82F0E94C4058C2F8A
S1130960CF910895CF93DF93D82FC62F0E94C0054F
S113097082E00E94CD058D2F0E94CD058C2F0E9410
S1130980CD050E94C405DF91CF910895CF93C82F60
S11309900E94C005C11104C081E80E94CD050BC0AE
S11309A0C13021F482E80E94CD0505C0C23019F49B
S11309B084E80E94CD050E94C405CF9108951F9339
S11309C0CF93DF93182FD62FC42F0E94C00585E044
S11309D00E94CD05812F0E94CD058D2F0E94CD054B
S11309E08C2F0E94CD050E94C405DF91CF911F91E9
S11309F008950E94C00580EC0E94CD050E94C405A4
S1130A0008951F93CF93DF93182FEB010E94C00525
S1130A1083E00E94CD05812F0E94CD050E94D1055F
S1130A20182F0E94C4051883DF91CF911F91089558
S1130A30CF93DF931F92CDB7DEB781E089830E9405
S1130A40C8050E94F904BE016F5F7F4F8EE00E94CB
S1130A5001058981807E803831F082ED92E00E9428
S1130A60D40681E009C0803831F487E093E00E9425
S1130A70D40680E001C080E00F90DF91CF9108950B
S1130A80E0910801F091090180830895CF93DF93E9
S1130A90C0E0D0E013C08C2F80550E94400580E058
S1130AA090E008C0E0910601F0910701EC0FFD1FF2
S1130AB01082019680389105ACF32196C830D10597
S1130AC054F3DF91CF910895CF93DF93D82FC62F9E
S1130AD082E20E9440058D2F0E94400587E00E941B
S1130AE0400581E20E9440058C2F0E9440058FE75B
S1130AF00E944005DF91CF9108958EEA0E9440053F
S1130B0081EA0E9440058AED0E94400582E10E942C
S1130B10400588EC0E94400588EA0E9440058FE366
S1130B200E94400585ED0E94400580E80E94400532
S1130B3081E80E94400580E50E94400589ED0E94FD
S1130B40400581E20E94400580E20E94400582E067
S1130B500E9440058BED0E94400580E30E94400501
S1130B608DEA0E94400580E00E94400584EA0E94CC
S1130B70400586EA0E9440058FEA0E9440050895D8
S1130B8088B38F7E88BB089588B3806188BB08953D
S1130B9080EB87BB81E58DB908958FB9779BFECF34
S1130BA008958FEF8FB9779BFECF8FB108955D9B2A
S1130BB0FECF8CB908955F9BFECF8CB108956BED89
S1130BC075E087ED95E00E946C06089510BC8FE1F6
S1130BD089B988E18AB98EE880BD0E94DF0508954D
S1130BE085B7806885BF80B7806280BF0895860F0F
S1130BF0971FFC0140830895860F971FFC01808195
S1130C000895DB018F939F930E943006BF91AF91AB
S1130C10A29F800D911DA39F900DB29F900D112452
S1130C200895052E97FB1EF400940E94280657FD94
S1130C3007D00E943B0607FC03D04EF40C94280610
S1130C4050954095309521953F4F4F4F5F4F0895F4
S1130C5090958095709561957F4F8F4F9F4F089524
S1130C600E945D06A59F900DB49F900DA49F800DDA
S1130C70911D11240895A1E21A2EAA1BBB1BFD018C
S1130C800DC0AA1FBB1FEE1FFF1FA217B307E40767
S1130C90F50720F0A21BB30BE40BF50B661F771FBF
S1130CA0881F991F1A9469F760957095809590959F
S1130CB09B01AC01BD01CF010895A29FB001B39F78
S1130CC0C001A39F700D811D1124911DB29F700D51
S1130CD0811D1124911D08950F931F93CF93DF93CA
S1130CE0009731F46115710519F480E090E03AC081
S1130CF08B01EC016EE070E081E090E00E94E50879
S1130D00FC01892B91F380E883830115110571F0AF
S1130D101387028781E8838380914F039091500366
S1130D20892B21F4F0935003E0934F032097C9F0EB
S1130D30D187C0878381826083838091510390919E
S1130D405203892B71F4F0935203E0935103809181
S1130D50530390915403892B21F4F0935403E093AB
S1130D605303CF01DF91CF911F910F910895A0E01C
S1130D70B0E0EDEBF6E00C94E90AAE014B5F5F4F97
S1130D80FA0161917191AF018091510390915203E5
S1130D900E940407E2E00C94050B609151037091EA
S1130DA052030E943F0A08950F931F93CF93DF933A
S1130DB0E0915103F0915203238121FF1BC08C0168
S1130DC0D0E0C0E0F80181918F01609151037091EE
S1130DD05203DB011896ED91FC911997882331F0A9
S1130DE00995892B79F3DFEFCFEFECCF8AE00995F2
S1130DF0892B19F08FEF9FEF02C08D2F9C2FDF916D
S1130E00CF911F910F910895ABE0B0E0EAE0F7E0D5
S1130E100C94D90A6C017B018A01FC0117821682A9
S1130E20838181FFCCC1CE0101963C01F6019381FF
S1130E30F70193FD859193FF81917F01882309F444
S1130E40BAC1853239F493FD859193FF81917F0175
S1130E50853229F4B60190E00E943F0AE7CF912C35
S1130E60212C312CFFE1F315D8F08B3279F038F4D2
S1130E70803279F08332A1F4232D20611DC08D329C
S1130E8061F0803369F4232D216016C0832D8260C4
S1130E90382EE32DE4603E2E2AC0F32DF8601DC0E9
S1130EA037FC2DC020ED280F2A3040F08E32B9F4E3
S1130EB036FC81C1232D2064322E19C036FE06C0B3
S1130EC08AE0989E200D1124922E11C0EAE02E9EF5
S1130ED0200D1124222EF32DF0623F2E08C08C36F3
S1130EE021F4832D8068382E02C0883641F4F7013E
S1130EF093FD859193FF81917F018111B3CF982F49
S1130F009F7D9554933028F40C5F1F4F9FE3998382
S1130F100DC0833631F0833771F0833509F059C041
S1130F2021C0F801808189830E5F1F4F8824839438
S1130F30912C530113C02801F2E04F0E511CF8010B
S1130F40A080B18036FE03C0692D70E002C06FEF4F
S1130F507FEFC5010E94340A4C018201F32DFF7713
S1130F603F2E16C0280122E0420E511CF801A08039
S1130F70B18036FE03C0692D70E002C06FEF7FEFD1
S1130F80C5010E94220A4C01F32DF0683F2E820114
S1130F9033FC1BC0822D90E088169906B0F4B6018C
S1130FA080E290E00E943F0A2A94F4CFF50137FCD6
S1130FB0859137FE81915F01B60190E00E943F0A5E
S1130FC021102A9421E0821A91088114910471F766
S1130FD0E8C0843611F0893641F5F80137FE07C0C0
S1130FE060817181828193810C5F1F4F08C0608191
S1130FF07181072E000C880B990B0E5F1F4FF32D88
S1131000FF763F2E97FF09C0909580957095619566
S11310107F4F8F4F9F4FF0683F2E2AE030E0A301AF
S11310200E947B0A882E861845C0853731F4232D0B
S11310302F7EB22E2AE030E025C0932D997FB92E61
S11310408F36C1F018F4883579F0B5C0803719F0BF
S1131050883721F0B0C0E92FE061BE2EB4FE0DC088
S1131060FB2DF460BF2E09C034FE0AC0292F266070
S1131070B22E06C028E030E005C020E130E002C016
S113108020E132E0F801B7FE07C0608171818281FE
S113109093810C5F1F4F06C06081718180E090E0F6
S11310A00E5F1F4FA3010E947B0A882E8618FB2D1A
S11310B0FF773F2E36FE0DC0232D2E7FA22E8914DE
S11310C058F434FE0BC032FC09C0832D8E7EA82E4A
S11310D005C0B82CA32C03C0B82C01C0B92CA4FEA5
S11310E00FC0FE01E80DF11D8081803321F49A2D9B
S11310F0997EA92E09C0A2FE06C0B394B39404C07D
S11311008A2D867809F0B394A3FC11C0A0FE06C012
S1131110B21488F4280C922C9B180EC0B21460F4FC
S1131120B60180E290E00E943F0AB394F7CFB21474
S113113018F42B1802C0982C212CA4FE10C0B60160
S113114080E390E00E943F0AA2FE17C0A1FC03C006
S113115088E790E002C088E590E0B6010CC08A2DD3
S1131160867859F0A1FE02C08BE201C080E2A7FCA0
S11311708DE2B60190E00E943F0A891438F4B6016A
S113118080E390E00E943F0A9A94F7CF8A94F30197
S1131190E80DF11D8081B60190E00E943F0A8110A4
S11311A0F5CF222009F442CEB60180E290E00E94FD
S11311B03F0A2A94F6CFF6018681978102C08FEF09
S11311C09FEF2B96E2E10C94F50A0F931F93CF93B4
S11311D0DF93869F8001879F100D969F100D112429
S11311E0C8010E940109EC01009729F0A80160E000
S11311F070E00E942D0ACE01DF91CF911F910F91D3
S113120008950F931F93CF93DF938230910510F4C9
S113121082E090E0E0915703F091580320E030E041
S1131220A0E0B0E0309719F140815181028113812F
S113123048175907C8F08417950769F4109731F0D7
S113124012960C93129713961C9327C0009357037E
S11312501093580322C02115310519F04217530782
S113126018F49A01BD01EF01DF01F801DBCF21156C
S11312703105F9F0281B390B2430310580F48A81BB
S11312809B816115710521F0FB019383828304C066
S11312909093580380935703FE01329644C0FE0195
S11312A0E20FF31F819391932250310939832883EC
S11312B03AC02091550330915603232B41F42091D9
S11312C0020130910301309356032093550320917A
S11312D00001309101012115310541F42DB73EB7CC
S11312E04091040150910501241B350BE0915503F5
S11312F0F0915603E217F307A0F42E1B3F0B2817B7
S1131300390778F0AC014E5F5F4F2417350748F07A
S11313104E0F5F1F5093560340935503819391934F
S113132002C0E0E0F0E0CF01DF91CF911F910F9177
S11313300895CF93DF93009709F481C0FC0132979D
S113134013821282A0915703B0915803109781F42D
S113135020813181820F931F2091550330915603D0
S11313602817390751F5F0935603E093550367C0E6
S1131370ED0120E030E0CE17DF0740F44A815B81C5
S11313809E0141155105F1F0EA01F5CFD383C283E3
S113139040815181840F951FC817D90759F488815A
S11313A09981840F951F0296918380838A819B8102
S11313B0938382832115310529F4F0935803E09334
S11313C057033DC0E901FB83EA8349915991C40F56
S11313D0D51FEC17FD0761F480819181840F951F5F
S11313E00296E90199838883828193819B838A830E
S11313F0E0E0F0E012968D919C911397009719F01C
S1131400FD01DC01F7CF8D919C9111979D012E5F19
S11314103F4F820F931F2091550330915603281795
S1131420390769F4309729F410925803109257033E
S113143002C013821282B0935603A0935503DF9126
S1131440CF910895FC010590615070400110D8F7C8
S1131450809590958E0F9F1F0895DC0101C06D93B8
S113146041505040E0F70895FC01615070400190F4
S11314700110D8F7809590958E0F9F1F08950F93B4
S11314801F93CF93DF93FB01238121FD03C08FEFD3
S11314909FEF2CC022FF16C04681578124813581DD
S11314A04217530744F4A081B1819D012F5F3F4F40
S11314B0318320838C93268137812F5F3F4F37837D
S11314C0268314C08B01EC01FB010084F185E02D1F
S11314D00995892BE1F6D80116968D919C91179761
S11314E0019617969C938E931697CE01DF91CF9118
S11314F01F910F910895FA01AA27283051F1203144
S113150081F1E8946F936E7F6E5F7F4F8F4F9F4F93
S1131510AF4FB1E03ED0B4E03CD0670F781F891FD5
S11315209A1FA11D680F791F8A1F911DA11D6A0FA3
S1131530711D811D911DA11D20D009F468943F9156
S11315402AE0269F11243019305D3193DEF6CF0155
S11315500895462F4770405D4193B3E00FD0C9F71B
S1131560F6CF462F4F70405D4A3318F0495D31FD88
S11315704052419302D0A9F7EACFB4E0A6959795DB
S1131580879577956795BA95C9F7009761057105B1
S113159008959B01AC010A2E0694579547953795FB
S11315A02795BA95C9F7620F731F841F951FA01D55
S11315B008952F923F924F925F926F927F928F92F3
S11315C09F92AF92BF92CF92DF92EF92FF920F93CE
S11315D01F93CF93DF93CDB7DEB7CA1BDB0B0FB6D8
S11315E0F894DEBF0FBECDBF09942A883988488895
S11315F05F846E847D848C849B84AA84B984C8842B
S1131600DF80EE80FD800C811B81AA81B981CE0F21
S1131610D11D0FB6F894DEBF0FBECDBFED01089506
S1071620F894FFCF68
S113162400005903200000120010204D43503235AD
S1131634313520697320494E206C6F6F7062616389
S11316446B206D6F646520616674657220696E69D0
S11316547420210D00204D435032353135206973F7
S113166420494E204E4F524D414C206D6F646520ED
S1131674616674657220696E697420210D000D0A17
S11316842323232323232323232323232323232322
S113169423204E4557204D4553534147452023238A
S11316A42323232323232323230D00526563656902
S11316B4766564206D657373616765206F6E20625F
S11316C4756666657220313A09000D0A7769746893
S11316D42064617461206C656E67743A0925640A38
S11316E40D0049443A0925640D0A0052656365698D
S11316F4766564206D657373616765206F6E20621F
S1131704756666657220323A09000D0A2323232381
S1131714232323204E4557204D4553534147452009
S113172453454E445420232323232323230D0044CD
S113173461746120593A0925690D0A004461746190
S113174420583A0925690D0A0044617461205269DC
S113175467687420736C696465723A0925690D0AB3
S11317640044617461204C65667420736C6964651B
S1131774723A0925690D0A004A6F792062757474F6
S11317846F6E3A0925690D0A00526967687420620C
S11317947574746F6E3A0925690D0A004C65667494
S11317A420627574746F6E3A0925690D0A004461E8
S11317B47461206C656E67743A0925640A0D000D22
S11317C40A232323232323232323232323232323FA
S11317D42320496E697420636F6D706C6574652091
S11317E423232323232323232323232323232323C1
S11317F40D00204D435032353135206973204E4F4E
S11318045420696E20636F6E6669677572617469CA
S11318146F6E206D6F6465206166746572207265F5
S113182473657420210D00204D4350323531352029
S1131834697320494E20636F6E66696775726174BB
S1131844696F6E206D6F64652061667465722072C1
S10B18546573657420210D0089
S9030000FC
