S01900004279676765726E206772757070652033362E7372656301
S11300000C9426010C9443010C94F6030C944301C4
S11300100C9443010C9443010C9443010C9443014C
S11300200C9443010C9443010C9443010C9443013C
S11300300C9443010C9443010C9443010C9443012C
S11300400C9443010C9443010C9443010C9443011C
S11300500C9443010C9443010C9443010C9443010C
S11300600C9443010C9443010C9443010C944301FC
S1130070000000000000005F0000000700070014FB
S11300807F147F14242A7F2A1223130864623649BA
S11300905522500005030000001C224100004122AB
S11300A01C00082A1C2A0808083E080800503000D2
S11300B00008080808080060600000201008040216
S11300C03E5149453E00427F40004261514946212C
S11300D041454B311814127F1027454545393C4A98
S11300E049493001710905033649494936064949E8
S11300F0291E00363600000056360000000814227F
S11301004114141414144122140800020151090664
S1130110324979413E7E1111117E7F494949363E6B
S1130120414141227F4141221C7F494949417F0984
S11301300901013E414151327F0808087F00417F97
S113014041002040413F017F081422417F4040404C
S1130150407F0204027F7F0408107F3E4141413EFC
S11301607F090909063E4151215E7F091929464646
S11301704949493101017F01013F4040403F1F206F
S113018040201F7F2018207F631408146303047821
S11301900403615149454300007F414102040810B2
S11301A02041417F000004020102044040404040DD
S11301B0000102040020545454787F4844443838E1
S11301C044444420384444487F3854545418087EE6
S11301D0090102081454543C7F0804047800447D47
S11301E040002040443D00007F10284400417F40EF
S11301F0007C041804787C080404783844444438A7
S11302007C14141408081414187C7C08040408488A
S113021054545420043F4440203C4040207C1C2043
S113022040201C3C4030403C44281028440C505092
S1130230503C4464544C44000836410000007F00A4
S113024000004136080002010302010011241FBE10
S1130250CFEFD4E0DEBFCDBF14E0A0E0B1E0E8E929
S1130260FCE102C005900D92A230B107D9F724E059
S1130270A2E0B4E001C01D92A832B207E1F70E94E7
S11302808A050C944A0E0C94000081B3806281BBF1
S113029080E48FBD89E08EBD81E081BF0895EF9237
S11302A0FF920F931F93CF93DF9300D000D0CDB76D
S11302B0DEB7082F40E060E070E080E094E10E9447
S11302C0310982E58A95F1F710E010C0E12EF12C96
S11302D060E070E080E094E10E943609E1E0F0E043
S11302E0EC0FFD1FEE0DFF1D80831F5F143070F3B4
S11302F0013041F028F0023039F0033039F008C001
S1130300898107C08A8105C08B8103C08C8101C0AB
S113031080E00F900F900F900F90DF91CF911F917D
S11303200F91FF90EF9008954F925F926F927F929A
S1130330AF92BF92CF92DF92EF92FF920F931F93EF
S1130340CF93DF93CDB7DEB729013A019B01AC010E
S1130350241935094609570989899A89AB89BC89C1
S1130360BC01CD016A197B098C099D090E943B09D6
S1130370A801970124193509460957090E944B0918
S1130380C601B501620F731F841F951FDF91CF91C2
S11303901F910F91FF90EF90DF90CF90BF90AF909F
S11303A07F906F905F904F900895AF92BF92CF92DD
S11303B0DF92EF92FF920F931F93611141C0873A2E
S11303C000F1682F70E080E090E01F921F921F926E
S11303D024E62F930F2EF2E3AF2EB12CC12CD12C97
S11303E0F02DE12CF12C8701EA9420EA30E040E082
S11303F050E00E9494010F900F900F900F90862F61
S11304009EC0882309F498C0682F70E080E090E0D3
S11304101F921F921F9222E32F93A12CB12C6501EE
S11304201FE9E12EF12C00E010E020E030E0A9010A
S11304300E9494010F900F900F900F90862F7FC011
S11304406130F1F5873A00F1682F70E080E090E0C8
S11304501F921F921F9224E62F930F2EF2E3AF2ECA
S1130460B12CC12CD12CF02DE12CF12C8701EA9474
S113047023EA30E040E050E00E9494010F900F9096
S11304800F900F90862F5BC0682F70E080E090E0A3
S11304901F921F921F9222E32F93A12CB12C65016E
S11304A012EAE12EF12C00E010E020E030E0A90196
S11304B00E9494010F900F900F900F90862F3FC0D1
S11304C06230E1F4682F70E080E090E01F921F92A8
S11304D01F9224E62F93A12CB12C6501E12CF12C61
S11304E08701EA942AE030E040E050E00E94940161
S11304F00F900F900F900F90862F21C06330F1F46E
S1130500682F70E080E090E01F921F921F9224E613
S11305102F93A12CB12C6501E12CF12C8701EA94D5
S11305202CE030E040E050E00E9494010F900F90E6
S11305300F900F90862F03C080E001C080E01F91D0
S11305400F91FF90EF90DF90CF90BF90AF90089500
S1130550611106C0843B60F4873960F480E008953B
S1130560613051F4843B50F4873950F483E00895AA
S113057081E0089584E0089580E0089582E008957C
S113058084E0089580B78B7F80BF87B38B7F87BB60
S113059088B3876088BB0895CF93DF931F92CDB74C
S11305A0DEB70E942F0687B3886087BB63E48AE2C4
S11305B00E94C90561EB89E20E94C90565E088E2F1
S11305C00E94C90563E08BE20E94C9058FEF9FE892
S11305D00197F1F700C0000040E06FEF8CE20E9449
S11305E0F6058FEF9FE80197F1F700C000006FEF69
S11305F080E60E94C9056FEF80E70E94C905F89460
S113060085B7826085BF85B78E7F85BF8BB78068CD
S11306108BBF81B3877F81BB78948FEF9FE801976D
S1130620F1F700C0000060E08FE00E94C90581E09E
S11306308983BE016F5F7F4F8EE00E941806898117
S1130640807E803421F48DE091E00E940E0A89813D
S1130650807E21F488E391E00E940E0A0F90DF91DE
S1130660CF910895EF92FF920F931F93CF93DF934F
S1130670CDB7DEB72B970FB6F894DEBF0FBECDBF54
S1130680E982FA820B831C832D833E834F83588730
S113069069877A878B8709811A81B801687F7770A7
S11306A076956795769567957695679581E30E942B
S11306B0C905602F6295660F607E82E30E94C905BA
S11306C0FB806F2D85E30E94C90500E010E00DC09A
S11306D0E4E0F0E0EC0FFD1FE00FF11F608186E322
S11306E0800F0E94C9050F5F1F4F8F2D90E00817E0
S11306F0190774F380E00E94DD052B960FB6F89479
S1130700DEBF0FBECDBFDF91CF911F910F91FF9040
S1130710EF900895FF920F931F93CF93DF938C0173
S113072061112EC082E60E94B705C82FC07E81E603
S11307300E94B70590E0880F991F880F991F880FB2
S1130740991FC295C695C7708C2BF801918380833D
S113075085E60E94B705F82EF8018283C0E0D0E058
S113076009C08C2F8A590E94B705F801EC0FFD1FB0
S1130770838321968F2D90E0C817D90794F32FC057
S1130780613069F582E70E94B705C82FC07E81E712
S11307900E94B70590E0880F991F880F991F880F52
S11307A0991FC295C695C7708C2BF80191838083DD
S11307B085E70E94B705F82EF8018283C0E0D0E0F7
S11307C009C08C2F8A580E94B705F801EC0FFD1F51
S11307D0838321968F2D90E0C817D90794F3C8011D
S11307E0DF91CF911F910F91FF9008951F920F9267
S11307F00FB60F9211241F932F933F934F935F9340
S11308006F937F938F939F93AF93BF93EF93FF93D4
S1130810CF93DF93CDB7DEB72B97DEBFCDBF8CE28E
S11308200E94B705982F927080FF4CC060E0CE0103
S113083001960E948A038BE0FE013196A6E0B4E0A3
S113084001900D928A95E1F781E691E00E940E0AEB
S11308508EE891E09F938F930E94F1090F900F907F
S113086010E009C0E12FF0E0EA5FFB4F838190E0E4
S11308700E94070A1F5F80910804181798F31F92BB
S11308808F938DEA91E09F938F930E94F109E6E0A4
S1130890F4E081818F9380818F9385EC91E09F9325
S11308A08F930E94F10980EA92E00E940E0A40E0D0
S11308B061E08CE20E94F6050FB6F894DEBF0FBE2D
S11308C0CDBF52C0992309F44FC061E0CE01019617
S11308D00E948A038BE0FE013196A2E1B4E001900C
S11308E00D928A95E1F781E691E00E940E0A8EEC62
S11308F091E09F938F930E94F1090F900F9010E065
S113090009C0E12FF0E0EE5EFB4F838190E00E948E
S1130910070A1F5F80911404181798F31F928F938E
S11309208DEA91E09F938F930E94F109E2E1F4E054
S113093081818F9380818F9385EC91E09F938F9336
S11309400E94F10980EA92E00E940E0A80EA92E095
S11309500E940E0A40E062E08CE20E94F6050FB6A7
S1130960F894DEBF0FBECDBF2B960FB6F894DEBF52
S11309700FBECDBFDF91CF91FF91EF91BF91AF91AA
S11309809F918F917F916F915F914F913F912F91A3
S11309901F910F900FBE0F901F9018956F927F922A
S11309A08F929F92AF92BF92CF92DF92EF92FF927B
S11309B00F931F93CF93DF93CDB7DEB72B970FB66B
S11309C0F894DEBF0FBECDBF80E00E944F0160E00F
S11309D00E94D501682E81E00E944F0161E00E94CF
S11309E0D501782E82E00E944F01882E83E00E9478
S11309F04F01982E86B38470B82E86B38270C82EA9
S1130A0086B38170D82E86E0E82E89831A82A0905E
S1130A101D04F12C08E0162D272D382D492D5B2DB2
S1130A206C2D7D2D8A2D0E9432038DEE91E00E9463
S1130A300E0A1F926F9282E192E09F938F930E941D
S1130A40F1091F927F928FE192E09F938F930E940E
S1130A50F1091F928F928CE292E09F938F930E94F0
S1130A60F1091F929F9284E492E09F938F930E94D6
S1130A70F1091F92BF928BE592E09F938F930E949E
S1130A80F1091F92CF928CE692E09F938F930E947C
S1130A90F1091F92DF928FE792E09F938F930E9458
S1130AA0F1091F9288E08F9381E992E09F938F93DD
S1130AB00E94F1090FB6F894DEBF0FBECDBF1F929E
S1130AC086E08F9385EC91E09F938F930E94F109C8
S1130AD01F92AF9282EA92E09F938F930E94F10952
S1130AE00FB6F894DEBF0FBECDBF2B960FB6F894A9
S1130AF0DEBF0FBECDBFDF91CF911F910F91FF904D
S1130B00EF90DF90CF90BF90AF909F908F907F90A9
S1130B106F9008950E942A090E94C2020E94450112
S1130B200E9420090E94A5060E9463062FEF8FEF02
S1130B309EE0215080409040E1F700C0000060E05A
S1130B4080E00E9481060E94CC0285EB92E00E9424
S1130B500E0A2FEF8FE791E0215080409040E1F79B
S1130B6000C000C00E94CE040E941208F2CFCF93AE
S1130B70C82F0E94FA0883E00E9407098C2F0E9464
S1130B8007090E940B09C82F0E94FE088C2FCF91E1
S1130B900895CF93DF93D82FC62F0E94FA0882E0DE
S1130BA00E9407098D2F0E9407098C2F0E940709B4
S1130BB00E94FE08DF91CF910895CF93C82F0E9421
S1130BC0FA08C11104C081E80E9407090BC0C130B2
S1130BD021F482E80E94070905C0C23019F484E8B0
S1130BE00E9407090E94FE08CF9108951F93CF9396
S1130BF0DF93182FD62FC42F0E94FA0885E00E9495
S1130C000709812F0E9407098D2F0E9407098C2F45
S1130C100E9407090E94FE08DF91CF911F91089559
S1130C200E94FA0880EC0E9407090E94FE080895B9
S1130C301F93CF93DF93182FEB010E94FA0883E0F0
S1130C400E940709812F0E9407090E940B09182F8F
S1130C500E94FE081883DF91CF911F910895CF93CE
S1130C60DF931F92CDB7DEB781E089830E9402092A
S1130C700E941006BE016F5F7F4F8EE00E9418062F
S1130C808981807E803831F088EE92E00E940E0ADD
S1130C9081E009C0803831F48DE193E00E940E0AAE
S1130CA080E001C080E00F90DF91CF910895E09142
S1130CB00801F091090180830895E0910601F09103
S1130CC0070180830895CF93DF93C0E0D0E013C081
S1130CD08C2F80550E94570680E090E008C0E09178
S1130CE00601F0910701EC0FFD1F10820196803878
S1130CF09105ACF32196C830D10554F3DF91CF911F
S1130D000895CF93DF93D82FC62F82E20E9457060F
S1130D108D2F0E94570687E00E94570681E20E94A9
S1130D2057068C2F0E9457068FE70E945706DF91C3
S1130D30CF91089560E080E00E9481060E946306DE
S1130D4060E080E00E94810608958EEA0E945706C2
S1130D5081EA0E9457068AED0E94570682E10E94AA
S1130D60570688EC0E94570688EA0E9457068FE3CC
S1130D700E94570685ED0E94570680E80E94570698
S1130D8081E80E94570680E50E94570689ED0E947B
S1130D90570681E20E94570680E20E94570682E0CD
S1130DA00E9457068BED0E94570680E30E94570667
S1130DB08DEA0E94570680E00E94570684EA0E944A
S1130DC0570686EA0E9457068FEA0E94570608953E
S1130DD01F93CF93DF9310EE180FC0E0D0E011C043
S1130DE0812F90E0FC01EE0FFF1FEE0FFF1FE80FB5
S1130DF0F91FEC0FFD1FE059FF4F84910E945D061F
S1130E002196C530D10564F3DF91CF911F910895E8
S1130E100E94810688E10E945D0688E10E945D06C9
S1130E208EE70E945D068CE30E945D0688E10E94C5
S1130E305D060895EF92FF920F931F93CF93DF9374
S1130E407C01FC0101900020E9F731978F01081B18
S1130E50190BC0E0D0E007C0F701EC0FFD1F808143
S1130E600E94E8062196C8019927C817D907A4F358
S1130E70DF91CF911F910F91FF90EF900895809192
S1130E800504823051F420910C0190910A01291338
S1130E9004C090910404992321F0909102049130AC
S1130EA069F41092050483E080930C0180930B0194
S1130EB084E080930A0110921D040895811115C0E5
S1130EC020910C0190910B0129130FC090910404FF
S1130ED091110BC081E08093050493E090930B0182
S1130EE090930A0180931D040895811104C0909188
S1130EF00C01943031F08330A1F490910C019630C0
S1130F0081F49091040491110CC082E08093050453
S1130F1083E080930C0180930B0184E080930A01A9
S1130F20089590910C01933081F4909104049111EF
S1130F300CC0823051F483E08093050480930C014B
S1130F4080930B0186E080930A01089580E00E945B
S1130F504F0161E00E94A80296B392FB992790F991
S1130F6090930404823089F480910C018150809321
S1130F700C0190910B01891710F490930C0160E01F
S1130F8080910C010E94080718C0833089F4809175
S1130F900C018F5F80930C0190910A01981710F453
S1130FA090930C0160E080910C010E94080705C039
S1130FB060E080910C010E9408072FEF8FE791E019
S1130FC0215080409040E1F700C000C00895809116
S1130FD00C01833061F490910404911108C0909144
S1130FE00504933021F481E0809303040895843050
S1130FF061F490910404911108C090910504933018
S113100021F482E0809303040895853051F48091A3
S11310100404811106C080910504833011F4809387
S1131020030408950E94A6070E943F070E94E70751
S113103080910504811125C060E00E9481060E9410
S11310409A0668E280E00E9481068EE493E00E94A2
S11310501A0768E281E00E94810688E593E00E9415
S11310601A0768E283E00E94810682E693E00E9408
S11310701A0768E284E00E9481068DE693E00E94EC
S11310801A07809105048130D1F560E080E00E9468
S113109081060E949A0663E283E00E94810686E745
S11310A093E00E941A0780910304813049F463E2BB
S11310B085E00E94810683E893E00E941A07089560
S11310C0823049F463E285E00E94810681E993E07D
S11310D00E941A070895833049F463E285E00E9470
S11310E081068FE993E00E941A07089563E285E080
S11310F00E9481068DEA93E00E941A0708958230C7
S113110039F560E080E00E9481060E949A0668E258
S113111080E00E9481068EE493E00E941A0768E250
S113112081E00E9481068DE693E00E941A0768E23E
S113113083E00E94810680EC93E00E941A0768E233
S113114084E00E94810681ED93E00E941A070895CD
S1131150833009F04EC060E080E00E9481060E9466
S11311609A0668E280E00E9481068EE493E00E9481
S11311701A0768E281E00E94810680EC93E00E94F5
S11311801A0768E283E00E9481068091030481309B
S113119021F46EE183E00E9408078EED93E00E9443
S11311A01A0768E284E00E94810680910304823079
S11311B021F46EE184E00E94080784EE93E00E942B
S11311C01A0768E285E00E94810680910304833057
S11311D021F46EE185E00E9408078AEE93E00E9404
S11311E01A0768E286E00E94810680EF93E00E947D
S11311F01A07089588B38F7E88BB089588B38061E9
S113120088BB089580EB87BB81E58DB908958FB9BC
S1131210779BFECF08958FEF8FB9779BFECF8FB169
S113122008955D9BFECF8CB908955F9BFECF8CB172
S1131230089565E179E081E199E00E94A6090895A5
S113124010BC8FE189B988E18AB98EE880BD0E941B
S11312501909089585B7806885BF80B7806280BF0B
S11312600895860F971FFC0140830895860F971FEA
S1131270FC0180810895DB018F939F930E946A098A
S1131280BF91AF91A29F800D911DA39F900DB29F1E
S1131290900D11240895052E97FB1EF400940E94CE
S11312A0620957FD07D00E94750907FC03D04EF46C
S11312B00C94620950954095309521953F4F4F4FBE
S11312C05F4F089590958095709561957F4F8F4FEE
S11312D09F4F08950E949709A59F900DB49F900D6C
S11312E0A49F800D911D11240895A1E21A2EAA1B1A
S11312F0BB1BFD010DC0AA1FBB1FEE1FFF1FA217C2
S1131300B307E407F50720F0A21BB30BE40BF50BBE
S1131310661F771F881F991F1A9469F76095709547
S1131320809590959B01AC01BD01CF010895A29FCA
S1131330B001B39FC001A39F700D811D1124911DA5
S1131340B29F700D811D1124911D08950F931F9359
S1131350CF93DF93009731F46115710519F480E0A0
S113136090E03AC08B01EC016EE070E081E090E027
S11313700E941F0CFC01892B91F380E883830115E3
S1131380110571F01387028781E8838380911E041D
S113139090911F04892B21F4F0931F04E0931E0401
S11313A02097C9F0D187C08783818260838380912D
S11313B0200490912104892B71F4F0932104E0938B
S11313C020048091220490912304892B21F4F0932A
S11313D02304E0932204CF01DF91CF911F910F9159
S11313E00895A0E0B0E0E7EFF9E00C94230EAE011D
S11313F04B5F5F4FFA0161917191AF0180912004BD
S1131400909121040E943E0AE2E00C943F0E609108
S11314102004709121040E94790D08950F931F9365
S1131420CF93DF93E0912004F0912104238121FFE5
S11314301BC08C01D0E0C0E0F80181918F01609164
S1131440200470912104DB011896ED91FC91199709
S1131450882331F00995892B79F3DFEFCFEFECCFB7
S11314608AE00995892B19F08FEF9FEF02C08D2F29
S11314709C2FDF91CF911F910F910895ABE0B0E0C5
S1131480E4E4FAE00C94130E6C017B018A01FC0184
S113149017821682838181FFCCC1CE0101963C0163
S11314A0F6019381F70193FD859193FF81917F016B
S11314B0882309F4BAC1853239F493FD859193FFE9
S11314C081917F01853229F4B60190E00E94790D63
S11314D0E7CF912C212C312CFFE1F315D8F08B327E
S11314E079F038F4803279F08332A1F4232D20612D
S11314F01DC08D3261F0803369F4232D216016C044
S1131500832D8260382EE32DE4603E2E2AC0F32D15
S1131510F8601DC037FC2DC020ED280F2A3040F0A4
S11315208E32B9F436FC81C1232D2064322E19C0C9
S113153036FE06C08AE0989E200D1124922E11C01A
S1131540EAE02E9E200D1124222EF32DF0623F2E70
S113155008C08C3621F4832D8068382E02C088366A
S113156041F4F70193FD859193FF81917F018111EE
S1131570B3CF982F9F7D9554933028F40C5F1F4F61
S11315809FE399830DC0833631F0833771F083353F
S113159009F059C021C0F801808189830E5F1F4F73
S11315A088248394912C530113C02801F2E04F0E38
S11315B0511CF801A080B18036FE03C0692D70E093
S11315C002C06FEF7FEFC5010E946E0D4C018201D6
S11315D0F32DFF773F2E16C0280122E0420E511C46
S11315E0F801A080B18036FE03C0692D70E002C00E
S11315F06FEF7FEFC5010E945C0D4C01F32DF06885
S11316003F2E820133FC1BC0822D90E08816990680
S1131610B0F4B60180E290E00E94790D2A94F4CFF0
S1131620F50137FC859137FE81915F01B60190E0A9
S11316300E94790D21102A9421E0821A91088114C4
S1131640910471F7E8C0843611F0893641F5F80148
S113165037FE07C060817181828193810C5F1F4FC7
S113166008C060817181072E000C880B990B0E5FF6
S11316701F4FF32DFF763F2E97FF09C0909580955D
S1131680709561957F4F8F4F9F4FF0683F2E2AE0F2
S113169030E0A3010E94B50D882E861845C0853719
S11316A031F4232D2F7EB22E2AE030E025C0932D75
S11316B0997FB92E8F36C1F018F4883579F0B5C00A
S11316C0803719F0883721F0B0C0E92FE061BE2ED1
S11316D0B4FE0DC0FB2DF460BF2E09C034FE0AC059
S11316E0292F2660B22E06C028E030E005C020E194
S11316F030E002C020E132E0F801B7FE07C06081AB
S11317007181828193810C5F1F4F06C0608171815A
S113171080E090E00E5F1F4FA3010E94B50D882E5C
S11317208618FB2DFF773F2E36FE0DC0232D2E7F0E
S1131730A22E891458F434FE0BC032FC09C0832D48
S11317408E7EA82E05C0B82CA32C03C0B82C01C0D3
S1131750B92CA4FE0FC0FE01E80DF11D8081803379
S113176021F49A2D997EA92E09C0A2FE06C0B39435
S1131770B39404C08A2D867809F0B394A3FC11C0F5
S1131780A0FE06C0B21488F4280C922C9B180EC03C
S1131790B21460F4B60180E290E00E94790DB39433
S11317A0F7CFB21418F42B1802C0982C212CA4FEE5
S11317B010C0B60180E390E00E94790DA2FE17C02C
S11317C0A1FC03C088E790E002C088E590E0B60180
S11317D00CC08A2D867859F0A1FE02C08BE201C0AC
S11317E080E2A7FC8DE2B60190E00E94790D891495
S11317F038F4B60180E390E00E94790D9A94F7CF13
S11318008A94F301E80DF11D8081B60190E00E94F5
S1131810790D8110F5CF222009F442CEB60180E281
S113182090E00E94790D2A94F6CFF6018681978183
S113183002C08FEF9FEF2B96E2E10C942F0E0F93D3
S11318401F93CF93DF93869F8001879F100D969FF0
S1131850100D1124C8010E943B0CEC01009729F0E3
S1131860A80160E070E00E94670DCE01DF91CF9186
S11318701F910F9108950F931F93CF93DF9382309D
S1131880910510F482E090E0E0912604F0912704A1
S113189020E030E0A0E0B0E0309719F140815181C0
S11318A00281138148175907C8F08417950769F412
S11318B0109731F012960C93129713961C9327C02D
S11318C0009326041093270422C02115310519F032
S11318D04217530718F49A01BD01EF01DF01F80123
S11318E0DBCF21153105F9F0281B390B24303105E4
S11318F080F48A819B816115710521F0FB0193833A
S1131900828304C09093270480932604FE013296B8
S113191044C0FE01E20FF31F8193919322503109D9
S1131920398328833AC02091240430912504232B41
S113193041F4209102013091030130932504209356
S1131940240420910001309101012115310541F455
S11319502DB73EB74091040150910501241B350B6E
S1131960E0912404F0912504E217F307A0F42E1B60
S11319703F0B2817390778F0AC014E5F5F4F2417EF
S1131980350748F04E0F5F1F5093250440932404FD
S11319908193919302C0E0E0F0E0CF01DF91CF9119
S11319A01F910F910895CF93DF93009709F481C09D
S11319B0FC01329713821282A0912604B09127046D
S11319C0109781F420813181820F931F2091240488
S11319D0309125042817390751F5F0932504E09335
S11319E0240467C0ED0120E030E0CE17DF0740F4A7
S11319F04A815B819E0141155105F1F0EA01F5CF61
S1131A00D383C28340815181840F951FC817D9079E
S1131A1059F488819981840F951F0296918380835C
S1131A208A819B81938382832115310529F4F09364
S1131A302704E09326043DC0E901FB83EA8349912E
S1131A405991C40FD51FEC17FD0761F48081918172
S1131A50840F951F0296E90199838883828193817B
S1131A609B838A83E0E0F0E012968D919C9113971A
S1131A70009719F0FD01DC01F7CF8D919C9111972E
S1131A809D012E5F3F4F820F931F209124043091BC
S1131A9025042817390769F4309729F4109227048C
S1131AA01092260402C013821282B0932504A093DC
S1131AB02404DF91CF910895FC010590615070409A
S1131AC00110D8F7809590958E0F9F1F0895DC0123
S1131AD001C06D9341505040E0F70895FC016150FE
S1131AE0704001900110D8F7809590958E0F9F1F3C
S1131AF008950F931F93CF93DF93FB01238121FD5F
S1131B0003C08FEF9FEF2CC022FF16C04681578180
S1131B10248135814217530744F4A081B1819D018A
S1131B202F5F3F4F318320838C93268137812F5F32
S1131B303F4F3783268314C08B01EC01FB010084E3
S1131B40F185E02D0995892BE1F6D80116968D9142
S1131B509C911797019617969C938E931697CE0196
S1131B60DF91CF911F910F910895FA01AA27283090
S1131B7051F1203181F1E8946F936E7F6E5F7F4F56
S1131B808F4F9F4FAF4FB1E03ED0B4E03CD0670FD2
S1131B90781F891F9A1FA11D680F791F8A1F911D25
S1131BA0A11D6A0F711D811D911DA11D20D009F475
S1131BB068943F912AE0269F11243019305D3193B7
S1131BC0DEF6CF010895462F4770405D4193B3E0A0
S1131BD00FD0C9F7F6CF462F4F70405D4A3318F047
S1131BE0495D31FD4052419302D0A9F7EACFB4E0F8
S1131BF0A6959795879577956795BA95C9F70097B0
S1131C006105710508959B01AC010A2E0694579550
S1131C10479537952795BA95C9F7620F731F841FA7
S1131C20951FA01D08952F923F924F925F926F923D
S1131C307F928F929F92AF92BF92CF92DF92EF9258
S1131C40FF920F931F93CF93DF93CDB7DEB7CA1BD9
S1131C50DB0B0FB6F894DEBF0FBECDBF09942A8804
S1131C60398848885F846E847D848C849B84AA84AC
S1131C70B984C884DF80EE80FD800C811B81AA8139
S1131C80B981CE0FD11D0FB6F894DEBF0FBECDBF04
S10B1C90ED010895F894FFCF63
S1131C9800002804200000120010040303204D4310
S1131CA8503235313520697320494E206C6F6F707E
S1131CB86261636B206D6F64652061667465722070
S1131CC8696E697420210D00204D43503235313539
S1131CD820697320494E204E4F524D414C206D6F60
S1131CE8646520616674657220696E697420210DCB
S1131CF8000D0A23232323232323232323232323FA
S1131D0823232323204E4557204D4553534147450C
S1131D182023232323232323232323230D00526552
S1131D28636569766564206D657373616765206FA3
S1131D386E2062756666657220313A09000D0A776D
S1131D486974682064617461206C656E67743A090B
S1131D5825640A0D0049443A0925640D0A005265B0
S1131D68636569766564206D657373616765206F63
S1131D786E2062756666657220323A09000D0A2380
S1131D88232323232323204E4557204D45535341D2
S1131D9847452053454E44542023232323232323F8
S1131DA80D004461746120593A0925690D0A0044FB
S1131DB861746120583A0925690D0A004461746107
S1131DC820526967687420736C696465723A0925DE
S1131DD8690D0A0044617461204C65667420736C53
S1131DE8696465723A0925690D0A004A6F792062A7
S1131DF87574746F6E3A0925690D0A00526967682B
S1131E087420627574746F6E3A0925690D0A004C62
S1131E1865667420627574746F6E3A0925690D0AD3
S1131E280044617461206C656E67743A0925640A1C
S1131E380D0047616D6520747269676765723A09B8
S1131E4825640D0A000D0A23232323232323232394
S1131E582323232323232320496E697420636F6D6E
S1131E68706C6574652023232323232323232323CE
S1131E782323232323230D00204D435032353135AA
S1131E88206973204E4F5420696E20636F6E666913
S1131E986775726174696F6E206D6F646520616621
S1131EA874657220726573657420210D00204D439A
S1131EB8503235313520697320494E20636F6E6680
S1131EC8696775726174696F6E206D6F64652061EE
S1131ED86674657220726573657420210D0050491B
S1131EE84E4720504F4E47004D61696E206D656E18
S1131EF8750053746172742067616D65005365746D
S1131F0874696E67730047414D452052554E4E49DA
S1131F184E4700536163697420706C6179696E6718
S1131F2800456C69617320706C6179696E67005053
S1131F382D6D616E20706C6179696E6700457269F8
S1131F486B204B6569746820706C6179696E6700F1
S1131F5853656C6563742063686172616374657248
S1131F68004261636B20746F206D656E7500536168
S1131F7863697400456C69617300502D6D616E006E
S1131F884261636B20746F2073657474696E677340
S1051F98000043
S9030000FC
