:0200000280007C
:10000000D8080020BD030800B9030800B9030800A0
:10001000B9030800B9030800B90308000000000094
:10002000000000000000000000000000B90308000C
:10003000B903080000000000B9030800A903080084
:10004000B9030800B9030800B9030800B9030800A0
:10005000B9030800B9030800B9030800B903080090
:10006000190B0800B903080000000000B9030800DC
:10007000B9030800B9030800B90308000000000034
:1000800000000000B9030800B9030800B903080024
:10009000B9030800B9030800B9030800B903080050
:1000A000B903080000000000B9030800B903080004
:1000B000B9030800B9030800B9030800B903080030
:1000C000B9030800B9030800B9030800B903080020
:1000D000B9030800B9030800B9030800B903080010
:1000E000B9030800B9030800B9030800CD040800EB
:1000F000B903080010B5054C237833B9044B13B18C
:100100000448AFF300800123237010BD34040020A5
:1001100000000000C40D08000C4B43B10C4810B5A2
:100120000C49AFF300800C48036823B910BD0A489E
:10013000036833B97047094B002BF7D0BDE8104076
:100140001847064B002BF5D0184700BF00000000F1
:10015000C40D080038040020C40D08000000000091
:10016000084AD2F8003143F02003C2F80031064BB0
:100170001A6942F080021A615A6842F080025A609D
:10018000704700BF00060E4000000C40F0B4571846
:10019000082FD4BF00230123082998BF082A5CD860
:1001A0000D46002B59D12E4A136823F0010313602A
:1001B00013692C4B4FF440745C641C6F24F00304EF
:1001C0001C6703245C605C66A3F50063264CC3F8DF
:1001D0000C41D3F8004144F40064C3F8004150617D
:1001E000002419E01E4801F110035B01C21800262B
:1001F000566000EB41124FF00056C2F808624FF013
:100200008076C650D2F81C3243F40003C2F81C3288
:1002100001238B401C430131B942E3DD00230DE093
:100220000F4901EB43124FF00050C2F8080203F1EE
:10023000100252014FF0407088500133AB42EFDBA7
:10024000074B5C604FF40061084A51601A6842F045
:1002500001021A600020F0BC70470120FBE700BFDC
:1002600000400B40000E0E402B10001000E100E09B
:1002700008B502220121014B984708BD8D010800F5
:1002800008B50248024B984708BD00BF6511290018
:10029000710208004B0103F1402303F53023D3F82A
:1002A000103213F4000F33D070B44B0103F140232C
:1002B00003F53023D3F81442D3F81822D3F80852A8
:1002C000C5F38A450580D3F81052C5F30345857000
:1002D000002303E0C618F270120A0133AB4205DABC
:1002E000032BF7DCC618F470240AF6E7094B01F17A
:1002F000100252014FF08070985003EB4111D1F879
:100300001C3243F40003C1F81C32002070BC70475B
:100310000120704700400B400A4AD2F8003143F0F8
:100320004003C2F80031084B1A6942F002021A6118
:100330005A6842F480725A605A6842F480325A60B5
:10034000704700BF00060E4000800C40C0EB00303C
:10035000054B83FB00230344C017C0EBE31080B2BE
:10036000024B1862704700BF8180808000800C4083
:100370000A4B53225A60F021094A82F823100022C6
:100380009A6007221A60074B1860064B1B68002B07
:10039000FBD10022014B1A60704700BF10E000E063
:1003A00000ED00E050040020024A1368013B136096
:1003B000704700BF50040020FEE7000008B5114B55
:1003C000114A9A4209D00F4B0F4A03E01168196095
:1003D000043304320D498B42F8D30D4B02E0002266
:1003E0001A6004330B4A9342F9D30B4B23F060435A
:1003F00023F07F03094A9360094B9847094B9847BC
:10040000FEE700BF00000020C40D080034040020F7
:1004100034040020D80400200000080000ED00E0B3
:10042000810B0800B50508004FF48063204A136073
:1004300002F5007213601F4B1B6A13F0807F07D117
:100440001D4A1C4B1A621B4B9B6E13F0010FFAD016
:100450001A4A184B1A62174B9B6E13F4803FFAD05E
:10046000144A136B23F0030343F001031363114B8E
:100470009B6E13F0080FFAD0114A0E4B9A620D4B87
:100480009B6E13F0020FFAD011220A4B1A63094B2C
:100490009B6E13F0080FFAD01222064B1A63054B1D
:1004A0009B6E13F0080FFAD0064A074B1A6070478C
:1004B000000A0E4000060E400908370009083701FF
:1004C000013F0D2000BD01050000002010B5124BBA
:1004D0001C6914F0060F09D014F0020F12D114F0A9
:1004E000040F14D002210D480D4B984714F0010F52
:1004F00002D00122084B9A604FF40062094BC3F806
:10050000842110BD01210548054B9847EEE70648B8
:10051000064B9847EAE700BF00400B406404002008
:100520009502080000E100E0F00C0800F109080065
:10053000F0B583B007460C46154BB3F900208B1A73
:10054000002BB8BF5B42134909788B4200DAD4B262
:1005500040F6FA23009300236422194620460E4DEC
:10056000A84705B2394628460C4B984706B2304694
:100570000B4B984729460B480B4DA84739460B486B
:10058000A84731460A48A847014B1C8003B0F0BD7C
:100590006004002004000020750A08001507080008
:1005A000750608001C0D0800F1090800380D080048
:1005B000540D080008B50F4B98474FF400420E4BFE
:1005C0005A600E4B98470E4B98470E4B98470E4B70
:1005D00098470E4B98470E4B98470E480E4B98473E
:1005E0000E4B98470E4BD9780E4B98470E480F4B41
:1005F0009847F5E729040800501A0E408D0A0800B4
:1006000081020800150A08006101080019030800AA
:1006100031060800600D0800F1090800C90608004D
:100620006404002031050800A08601007103080061
:1006300010B40D484FF4804303610C4B196840F22D
:100640000764214319601A6922431A614FF4005369
:100650000361074B1A6842F4FF721A601A6C42F485
:10066000FF721A6410BC704700060E4000140E4062
:1006700000120E4008B500280FDB00281BDD104BD0
:100680004FF400721A634FF480625A636E2800DDE3
:10069000692080B20B4B984708BD094B4FF400729C
:1006A0001A634FF480621A636E2800DD692080B2FD
:1006B000044B984708BD4FF40072014B5A6308BDC4
:1006C00000140E404D0308002DE9F8430E4D01269D
:1006D0006E634FF00409C5F834901420DFF83080C1
:1006E000C0470A4FFC6B04F4FF74C5F83090142027
:1006F000C047F86B00F4FF702E6302232B632402C3
:1007000024B22043BDE8F88300140E4000120E40CE
:100710007103080010B4114B198089B2401A80B2DD
:100720009880DB88642B13DC0C4A51890B441381BD
:100730000A4BB3F908108AB210449A88DC88224424
:10074000DA80B3F900205A80598100B210BC70479A
:10075000024B6422DA801A81EAE700BF54040020C9
:1007600008B5C8B2014B984708BD00BFF50A08009C
:100770002DE9F04107460E46151E02DD0A4600210E
:1007800004E04FF020080EE001310132107800281B
:10079000FAD1A94201DA6D1A00E0002513F0020F28
:1007A00006D14FF0200813F001040AD0002410E015
:1007B0004FF03008F7E7414638460D4B9847013473
:1007C000013D002DF7DC04E03846094B9847013421
:1007D000013631780029F7D105E041463846044B0F
:1007E00098470134013D002DF7DC2046BDE8F0813B
:1007F00061070800F0B585B007460C9851B11E4658
:100800000C4613B10A2A12D0002604AD002305F8C5
:10081000013D18E030238DF8043000238DF80530B9
:100820000B9B0A9A01A938461B4CA04729E00029D6
:1008300001DB0026E9E74C420126E6E7303305F804
:10084000013DB4FBF2F44CB1B4FBF2F302FB1343F1
:10085000092BF3DDA0F13A010B44EFE756B10A9BF7
:100860001BB10B9B13F0020F0DD12D2305F8013C9A
:10087000013D00260B9B0A9A29463846064CA047A4
:10088000304405B0F0BD2D213846044B98470A9BF3
:10089000013B0A93EEE700BF7107080061070800FB
:1008A000F0B589B006460C460592002581E0A21CF1
:1008B00001238BE0013443F002032278302AF9D07F
:1008C000002206E002EB82025000A1F13002024455
:1008D00001342178A1F13000C0B20928F2D973297E
:1008E00018D0642922D078292FD058293CD07529D6
:1008F00049D063295CD10599081D059009788DF8C8
:100900001C1000218DF81D1007A93046344FB84740
:1009100005444DE00599081D0590096821B1304650
:100920002F4FB847054443E02E49F8E70599081DC5
:1009300005900968612002900193009201230A2228
:100940003046294FB847054432E00599081D059007
:100950000968612002900193009200231022304622
:10096000214FB847054423E00599081D0590096803
:1009700041200290019300920023102230461A4F2A
:10098000B847054414E00599081D059009686120E1
:1009900002900193009200230A223046124FB8477A
:1009A000054405E0144621783046104B9847013540
:1009B0000134237863B1252BF5D1621C63783BB1F8
:1009C000252BEFD02D2B3FF472AF0023144674E794
:1009D00016B1336800221A70284609B0F0BD00BF76
:1009E00071070800740D0800F5070800610708008A
:1009F0000FB400B583B004AA52F8041B0192002082
:100A0000034B984703B05DF804EB04B0704700BF98
:100A1000A1080800144AD2F8003143F01003C2F8CC
:100A20000031124B5A6842F400225A601A6F42F4A5
:100A300000221A6740F20722A3F59923A3F5EC637D
:100A40001A6040F2B1720C331A60094AD2F8A4322B
:100A500043F4767343F00103C2F8A432536843F0C1
:100A600020035360704700BF00060E4000120E4086
:100A70000040094010B4401A019CE41A04FB00F045
:100A8000521A90FBF2F0184410BC7047164B00222B
:100A90001A705A70154B4FF44071596459601A6FAF
:100AA000186F024022F440721A6759664FF4807240
:100AB000A3F500631A6103F50073AC21196040F2DD
:100AC000232119624FF40061596040F20221C3F8FA
:100AD00020114FF0FF31D960E121996004490A608B
:100AE00050221A60704700BF70040020000E0E40B4
:100AF00000E100E0074B5B6913F0020F08D0054BE3
:100B0000D861044B5B6913F4007FFAD00020704772
:100B10000120704700080E4008B5154B5B6913F0C3
:100B2000E00F03D04FF4A871114A116013F0010FC8
:100B300012D010484278531C594203F03F0301F091
:100B40003F0158BF4B4201788B4206D00849886963
:100B500008490A4490704B7008BD0748074B9847F6
:100B6000044B5978024A92690B449A7008BD00BF41
:100B700000080E40700400207C0D0800F1090800F8
:100B800070B50F4E0F4D761BB61018BF002405D060
:100B9000013455F8043B9847A642F9D10A4E0B4D53
:100BA00000F0FEF8761BB61018BF002406D0013402
:100BB00055F8043B9847A642F9D170BD70BD00BFFF
:100BC000AC0D0800AC0D0800B40D0800AC0D080019
:100BD000024B13B1024800F005B870470000000056
:100BE000F10B0800002301461A46184600F01EB813
:100BF00038B50A4C0A4D641BA4100AD004F1804396
:100C0000013B05EB8305013C55F804399847002C5E
:100C1000F9D1BDE8384000F0CDB800BFC40D0800E0
:100C2000C00D0800704700BF704700BF2DE9F843B2
:100C30002C4D0646286898460F469146FFF7F2FF6E
:100C4000294B1C68D4F84831002B3ED05A681F2A23
:100C50001CDC02F1010E76B1012103EB8204C4F821
:100C60008890D3F8880191400843022EC3F8880188
:100C7000C4F8088123D00232C3F804E0286843F89E
:100C80002270FFF7D1FF0020BDE8F883174B0BB3AC
:100C90004FF4C870AFF300800346D8B10020D4F8F9
:100CA00048114FF0010E586019600246C4F84831EF
:100CB000C3F88801C3F88C01002EDCD0CCE7D3F850
:100CC0008C010143C3F88C11D5E704F5A673C4F871
:100CD0004831BBE72868FFF7A7FF4FF0FF30BDE8BA
:100CE000F88300BF300400209C0D080000000000C5
:100CF00043414E30206D6573736167652061727288
:100D00006976656420696E206E6F6E2D75736564FB
:100D1000206D61696C626F780A0D0000446573692B
:100D200072656420706F736974696F6E2069733ABD
:100D3000202564090A0D000043757272656E7420E7
:100D4000706F736974696F6E2069733A2025640946
:100D50000A0D0000752069733A202564090A0D0008
:100D60000D0A496E697420636F6D706C6574650A55
:100D70000D000000286E756C6C2900004552523A37
:100D80002055415254205258206275666665722083
:100D900069732066756C6C0A0D0000000800002065
:100DA000F8B500BFF8BC08BC9E467047D10B0800E0
:100DB00019010800F8B500BFF8BC08BC9E46704792
:040DC000F500080032
:100DC40000093D001900000000000000F4020020AA
:100DD4005C030020C40300200000000000000000A9
:100DE40000000000000000000000000000000000FF
:100DF40000000000000000000000000000000000EF
:100E040000000000000000000000000000000000DE
:100E140000000000000000000000000000000000CE
:100E240000000000000000000000000000000000BE
:100E340000000000000000000000000000000000AE
:100E4400000000000000000000000000000000009E
:100E5400000000000000000000000000000000008E
:100E6400000000000000000000000000000000007E
:100E740001000000000000000E33CDAB34126DE61B
:100E8400ECDE05000B000000000000000000000084
:100E9400000000000000000000000000000000004E
:100EA400000000000000000000000000000000003E
:100EB400000000000000000000000000000000002E
:100EC400000000000000000000000000000000001E
:0411F400B40400201F
:040000038000000079
:00000001FF
