S01900004279676765726E206772757070652033362E7372656301
S11300000C9438000C9455000C9455000C94550035
S11300100C9455000C9455000C9455000C94550008
S11300200C9455000C9455000C9455000C945500F8
S11300300C9455000C9455000C9455000C945500E8
S11300400C9455000C9455000C9455000C945500D8
S11300500C9455000C9455000C9455000C945500C8
S11300600C9455000C9455000C9455000C945500B8
S113007011241FBECFEFD4E0DEBFCDBF11E0A0E05E
S1130080B1E0E8E5F5E002C005900D92AA30B107B1
S1130090D9F721E0AAE0B1E001C01D92A431B20772
S11300A0E1F70E9461000C94AA020C94000081B351
S11300B0806281BB80E48FBD89E08EBD81E081BF19
S11300C008950E9414010E9457000E940A010E9490
S11300D0B8000E947D002FEF8FEF9EE021508040FA
S11300E09040E1F700C000000E949B00FDCFE0912A
S11300F00801F091090180830895CF93DF93C0E054
S1130100D0E013C08C2F80550E94770080E090E0EF
S113011008C0E0910601F0910701EC0FFD1F108269
S1130120019680389105ACF32196C830D10554F37B
S1130130DF91CF910895CF93DF93C0E0D0E012C058
S11301408C2F80550E94770080E090E007C0E091FA
S11301500601F09107012FEF208301968038910565
S1130160B4F32196C830D1055CF3DF91CF910895A3
S11301708EEA0E94770081EA0E9477008AED0E944D
S1130180770082E10E94770088EC0E94770088EA79
S11301900E9477008FE30E94770085ED0E9477002C
S11301A080E80E94770081E80E94770080E50E9441
S11301B0770089ED0E94770081E20E94770080E257
S11301C00E94770082E00E9477008BED0E94770006
S11301D080E30E9477008DEA0E94770080E00E940D
S11301E0770084EA0E94770086EA0E9477008FEA0B
S11301F00E94770008955D9BFECF8CB908955F9BA4
S1130200FECF8CB108956FEF70E08BEF90E00E9409
S11302101B01089510BC8FE189B988E18AB98EE881
S113022080BD0E940301089585B7806885BF80B7AB
S1130230806280BF08950F931F93CF93DF9300973D
S113024031F46115710519F480E090E03AC08B0136
S1130250EC016EE070E081E090E00E946601FC0138
S1130260892B91F380E883830115110571F01387BD
S1130270028781E8838380910A0190910B01892B85
S113028021F4F0930B01E0930A012097C9F0D18780
S1130290C08783818260838380910C0190910D01DA
S11302A0892B71F4F0930D01E0930C0180910E0100
S11302B090910F01892B21F4F0930F01E0930E012B
S11302C0CF01DF91CF911F910F9108950F931F9349
S11302D0CF93DF93869F8001879F100D969F100D0B
S11302E01124C8010E948201EC01009729F0A801A1
S11302F060E070E00E94A302CE01DF91CF911F91D4
S11303000F9108950F931F93CF93DF93823091053C
S113031010F482E090E0E0911201F091130120E0EA
S113032030E0A0E0B0E0309719F1408151810281C2
S1130330138148175907C8F08417950769F4109773
S113034031F012960C93129713961C9327C00093C6
S113035012011093130122C02115310519F042171F
S1130360530718F49A01BD01EF01DF01F801DBCF57
S113037021153105F9F0281B390B2430310580F49F
S11303808A819B816115710521F0FB01938382832E
S113039004C09093130180931201FE01329644C06D
S11303A0FE01E20FF31F81939193225031093983A7
S11303B028833AC02091100130911101232B41F47C
S11303C02091020130910301309311012093100117
S11303D020910001309101012115310541F42DB71F
S11303E03EB74091040150910501241B350BE09167
S11303F01001F0911101E217F307A0F42E1B3F0B3B
S11304002817390778F0AC014E5F5F4F2417350782
S113041048F04E0F5F1F50931101409310018193D8
S1130420919302C0E0E0F0E0CF01DF91CF911F9102
S11304300F910895CF93DF93009709F481C0FC01D5
S1130440329713821282A0911201B0911301109776
S113045081F420813181820F931F2091100130910A
S113046011012817390751F5F0931101E093100198
S113047067C0ED0120E030E0CE17DF0740F44A8189
S11304805B819E0141155105F1F0EA01F5CFD3835B
S1130490C28340815181840F951FC817D90759F42D
S11304A088819981840F951F0296918380838A8124
S11304B09B81938382832115310529F4F0931301E1
S11304C0E09312013DC0E901FB83EA83499159910C
S11304D0C40FD51FEC17FD0761F480819181840F4F
S11304E0951F0296E90199838883828193819B8376
S11304F08A83E0E0F0E012968D919C911397009727
S113050019F0FD01DC01F7CF8D919C9111979D01AC
S11305102E5F3F4F820F931F2091100130911101E4
S11305202817390769F4309729F4109213011092AF
S1130530120102C013821282B0931101A093100120
S1130540DF91CF910895DC0101C06D93415050407B
S10B0550E0F70895F894FFCFD1
S10D0558000014012000001200103E
S9030000FC
