S01900004279676765726E206772757070652033362E7372656301
S11300000C9426010C9443010C9443010C94430179
S11300100C9443010C9443010C9443010C9443014C
S11300200C9443010C9443010C9443010C9443013C
S11300300C9443010C9443010C9443010C9443012C
S11300400C9443010C9443010C9443010C9443011C
S11300500C9443010C9443010C9443010C9443010C
S11300600C9443010C9443010C9443010C944301FC
S1130070000000000000005F0000000700070014FB
S11300807F147F14242A7F2A1223130864623649BA
S11300905522500005030000001C224100004122AB
S11300A01C00082A1C2A0808083E080800503000D2
S11300B00008080808080060600000201008040216
S11300C03E5149453E00427F40004261514946212C
S11300D041454B311814127F1027454545393C4A98
S11300E049493001710905033649494936064949E8
S11300F0291E00363600000056360000000814227F
S11301004114141414144122140800020151090664
S1130110324979413E7E1111117E7F494949363E6B
S1130120414141227F4141221C7F494949417F0984
S11301300901013E414151327F0808087F00417F97
S113014041002040413F017F081422417F4040404C
S1130150407F0204027F7F0408107F3E4141413EFC
S11301607F090909063E4151215E7F091929464646
S11301704949493101017F01013F4040403F1F206F
S113018040201F7F2018207F631408146303047821
S11301900403615149454300007F414102040810B2
S11301A02041417F000004020102044040404040DD
S11301B0000102040020545454787F4844443838E1
S11301C044444420384444487F3854545418087EE6
S11301D0090102081454543C7F0804047800447D47
S11301E040002040443D00007F10284400417F40EF
S11301F0007C041804787C080404783844444438A7
S11302007C14141408081414187C7C08040408488A
S113021054545420043F4440203C4040207C1C2043
S113022040201C3C4030403C44281028440C505092
S1130230503C4464544C44000836410000007F00A4
S113024000004136080002010302010011241FBE10
S1130250CFEFD4E0DEBFCDBF11E0A0E0B1E0ECEF22
S1130260FFE002C005900D92A435B107D9F721E053
S1130270A4E5B1E001C01D92A136B207E1F70E94E6
S1130280AE010C94FC070C94000081B3806281BB26
S113029080E48FBD89E08EBD81E081BF0895EF9237
S11302A0FF920F931F93CF93DF9300D000D0CDB76D
S11302B0DEB7082F40E060E070E080E094E10E9447
S11302C0850382E58A95F1F710E010C0E12EF12C48
S11302D060E070E080E094E10E948A03E1E0F0E0F5
S11302E0EC0FFD1FEE0DFF1D80831F5F143070F3B4
S11302F0013041F028F0023039F0033039F008C001
S1130300898107C08A8105C08B8103C08C8101C0AB
S113031080E00F900F900F900F90DF91CF911F917D
S11303200F91FF90EF900895611106C0843B60F433
S1130330873960F480E00895613051F4843B50F4CF
S1130340873950F483E0089581E0089584E00895A6
S113035080E0089582E0089584E008950E947E0379
S11303600E9445010E9474030E9416020E94D40157
S11303702FEF8FEF9EE0215080409040E1F700C0C6
S1130380000060E080E00E94F2010E94EF02FDCFD5
S1130390E0910801F091090180830895E09106013C
S11303A0F091070180830895CF93DF93C0E0D0E0FC
S11303B013C08C2F80550E94C80180E090E008C0D3
S11303C0E0910601F0910701EC0FFD1F10820196E8
S11303D080389105ACF32196C830D10554F3DF91F0
S11303E0CF910895CF93DF93D82FC62F82E20E9436
S11303F0C8018D2F0E94C80187E00E94C80181E2D4
S11304000E94C8018C2F0E94C8018FE70E94C80176
S1130410DF91CF91089560E080E00E94F2010E9494
S1130420D40160E080E00E94F20108958EEA0E9407
S1130430C80181EA0E94C8018AED0E94C80182E1D4
S11304400E94C80188EC0E94C80188EA0E94C80181
S11304508FE30E94C80185ED0E94C80180E80E94D4
S1130460C80181E80E94C80180E50E94C80189EDA5
S11304700E94C80181E20E94C80180E20E94C80172
S113048082E00E94C8018BED0E94C80180E30E94B3
S1130490C8018DEA0E94C80180E00E94C80184EA74
S11304A00E94C80186EA0E94C8018FEA0E94C8011E
S11304B008951F93CF93DF9310EE180FC0E0D0E0A0
S11304C011C0812F90E0FC01EE0FFF1FEE0FFF1F04
S11304D0E80FF91FEC0FFD1FE059FF4F84910E94B4
S11304E0CE012196C530D10564F3DF91CF911F91E0
S11304F008950E94F20188E10E94CE0188E10E94E1
S1130500CE018EE70E94CE018CE30E94CE0188E1E9
S11305100E94CE010895EF92FF920F931F93CF9301
S1130520DF937C01FC0101900020E9F731978F01F2
S1130530081B190BC0E0D0E007C0F701EC0FFD1F4A
S113054080810E9459022196C8019927C817D907AA
S1130550A4F3DF91CF911F910F91FF90EF90089535
S113056080915601843039F480915401893C18F00B
S113057081E0809355010895CF9381E00E944F015B
S113058061E00E949401C82F82E00E944F01809391
S11305905401C23049F48091560181508093560130
S11305A060E00E94790210C0C33049F48091560182
S11305B08F5F8093560160E00E94790205C060E07D
S11305C0809156010E9479022FEF8FE791E021502C
S11305D080409040E1F700C000C0CF910895CF93D0
S11305E0DF930E94BC020E94B002809154011F92CA
S11305F08F93CAE0D1E0DF93CF930E94DA03809116
S113060056011F928F93DF93CF930E94DA03809158
S113061055012DB73EB7285F3F4F0FB6F8943EBF44
S11306200FBE2DBF811126C060E00E94F2010E941E
S11306300B0264E180E00E94F20180E191E00E94FB
S11306408B0268E281E00E94F2018DE191E00E9458
S11306508B0268E283E00E94F20187E291E00E944B
S11306608B0268E284E00E94F20182E391E00E943E
S11306708B0228C0813031F560E080E00E94F201F5
S11306800E940B0264E180E00E94F20180E191E0AB
S11306900E948B0268E281E00E94F20182E391E011
S11306A00E948B0268E283E00E94F2018BE391E0F6
S11306B00E948B0268E284E00E94F2018FE491E0E0
S11306C00E948B02DF91CF9108955D9BFECF8CB980
S11306D008955F9BFECF8CB1089569E673E085E6CB
S11306E093E00E948F03089510BC8FE189B988E1DB
S11306F08AB98EE880BD0E946D03089585B780682D
S113070085BF80B7806280BF0895860F971FFC0164
S113071040830895860F971FFC01808108950F93ED
S11307201F93CF93DF93009731F46115710519F48A
S113073080E090E03AC08B01EC016EE070E081E073
S113074090E00E94D105FC01892B91F380E883831A
S11307500115110571F01387028781E88383809165
S1130760570190915801892B21F4F0935801E0939B
S113077057012097C9F0D187C08783818260838322
S11307808091590190915A01892B71F4F0935A0187
S1130790E093590180915B0190915C01892B21F4D4
S11307A0F0935C01E0935B01CF01DF91CF911F9146
S11307B00F910895A0E0B0E0E0EEF3E00C94D507CB
S11307C0AE014B5F5F4FFA0161917191AF0180916E
S11307D0590190915A010E94F003E2E00C94F10750
S11307E0ABE0B0E0E6EFF3E00C94C5076C017B01ED
S11307F08A01FC0117821682838181FFCCC1CE015C
S113080001963C01F6019381F70193FD859193FFD5
S113081081917F01882309F4BAC1853239F493FDAB
S1130820859193FF81917F01853229F4B60190E08F
S11308300E942B07E7CF912C212C312CFFE1F315DB
S1130840D8F08B3279F038F4803279F08332A1F425
S1130850232D20611DC08D3261F0803369F4232D76
S1130860216016C0832D8260382EE32DE4603E2E75
S11308702AC0F32DF8601DC037FC2DC020ED280FD1
S11308802A3040F08E32B9F436FC81C1232D206425
S1130890322E19C036FE06C08AE0989E200D11241F
S11308A0922E11C0EAE02E9E200D1124222EF32D4B
S11308B0F0623F2E08C08C3621F4832D8068382ED8
S11308C002C0883641F4F70193FD859193FF81912D
S11308D07F018111B3CF982F9F7D9554933028F4D5
S11308E00C5F1F4F9FE399830DC0833631F083372C
S11308F071F0833509F059C021C0F80180818983E2
S11309000E5F1F4F88248394912C530113C0280138
S1130910F2E04F0E511CF801A080B18036FE03C0F6
S1130920692D70E002C06FEF7FEFC5010E942007C0
S11309304C018201F32DFF773F2E16C0280122E0DF
S1130940420E511CF801A080B18036FE03C0692D0F
S113095070E002C06FEF7FEFC5010E940E074C01EB
S1130960F32DF0683F2E820133FC1BC0822D90E0F2
S113097088169906B0F4B60180E290E00E942B0735
S11309802A94F4CFF50137FC859137FE81915F01FC
S1130990B60190E00E942B0721102A9421E0821ACC
S11309A091088114910471F7E8C0843611F08936F6
S11309B041F5F80137FE07C060817181828193811E
S11309C00C5F1F4F08C060817181072E000C880BDB
S11309D0990B0E5F1F4FF32DFF763F2E97FF09C033
S11309E090958095709561957F4F8F4F9F4FF068DC
S11309F03F2E2AE030E0A3010E946707882E861864
S1130A0045C0853731F4232D2F7EB22E2AE030E005
S1130A1025C0932D997FB92E8F36C1F018F48835EF
S1130A2079F0B5C0803719F0883721F0B0C0E92FCC
S1130A30E061BE2EB4FE0DC0FB2DF460BF2E09C0D4
S1130A4034FE0AC0292F2660B22E06C028E030E00A
S1130A5005C020E130E002C020E132E0F801B7FE39
S1130A6007C060817181828193810C5F1F4F06C032
S1130A706081718180E090E00E5F1F4FA3010E94AE
S1130A806707882E8618FB2DFF773F2E36FE0DC094
S1130A90232D2E7FA22E891458F434FE0BC032FC71
S1130AA009C0832D8E7EA82E05C0B82CA32C03C0AC
S1130AB0B82C01C0B92CA4FE0FC0FE01E80DF11D35
S1130AC08081803321F49A2D997EA92E09C0A2FE3B
S1130AD006C0B394B39404C08A2D867809F0B39405
S1130AE0A3FC11C0A0FE06C0B21488F4280C922CFA
S1130AF09B180EC0B21460F4B60180E290E00E942C
S1130B002B07B394F7CFB21418F42B1802C0982C07
S1130B10212CA4FE10C0B60180E390E00E942B07B4
S1130B20A2FE17C0A1FC03C088E790E002C088E5DC
S1130B3090E0B6010CC08A2D867859F0A1FE02C05F
S1130B408BE201C080E2A7FC8DE2B60190E00E9436
S1130B502B07891438F4B60180E390E00E942B0738
S1130B609A94F7CF8A94F301E80DF11D8081B601C0
S1130B7090E00E942B078110F5CF222009F442CE89
S1130B80B60180E290E00E942B072A94F6CFF6018A
S1130B908681978102C08FEF9FEF2B96E2E10C9440
S1130BA0E1070F931F93CF93DF93869F8001879F65
S1130BB0100D969F100D1124C8010E94ED05EC0143
S1130BC0009729F0A80160E070E00E941907CE01A7
S1130BD0DF91CF911F910F9108950F931F93CF939E
S1130BE0DF938230910510F482E090E0E0915F01A0
S1130BF0F091600120E030E0A0E0B0E0309719F11E
S1130C00408151810281138148175907C8F0841724
S1130C10950769F4109731F012960C931297139676
S1130C201C9327C000935F011093600122C021151B
S1130C30310519F04217530718F49A01BD01EF0169
S1130C40DF01F801DBCF21153105F9F0281B390B41
S1130C502430310580F48A819B816115710521F06E
S1130C60FB019383828304C09093600180935F01AE
S1130C70FE01329644C0FE01E20FF31F819391936B
S1130C8022503109398328833AC020915D01309183
S1130C905E01232B41F42091020130910301309332
S1130CA05E0120935D012091000130910101211525
S1130CB0310541F42DB73EB740910401509105012F
S1130CC0241B350BE0915D01F0915E01E217F307FF
S1130CD0A0F42E1B3F0B2817390778F0AC014E5FA8
S1130CE05F4F2417350748F04E0F5F1F50935E0186
S1130CF040935D018193919302C0E0E0F0E0CF0165
S1130D00DF91CF911F910F910895CF93DF930097B7
S1130D1009F481C0FC01329713821282A0915F0111
S1130D20B0916001109781F420813181820F931F6B
S1130D3020915D0130915E012817390751F5F09338
S1130D405E01E0935D0167C0ED0120E030E0CE1765
S1130D50DF0740F44A815B819E0141155105F1F0A2
S1130D60EA01F5CFD383C28340815181840F951F5B
S1130D70C817D90759F488819981840F951F029661
S1130D80918380838A819B8193838283211531059A
S1130D9029F4F0936001E0935F013DC0E901FB8316
S1130DA0EA8349915991C40FD51FEC17FD0761F4EB
S1130DB080819181840F951F0296E901998388832C
S1130DC0828193819B838A83E0E0F0E012968D9187
S1130DD09C911397009719F0FD01DC01F7CF8D91D9
S1130DE09C9111979D012E5F3F4F820F931F20917D
S1130DF05D0130915E012817390769F4309729F4B1
S1130E001092600110925F0102C013821282B093AB
S1130E105E01A0935D01DF91CF910895FC010590DF
S1130E20615070400110D8F7809590958E0F9F1FE8
S1130E300895DC0101C06D9341505040E0F70895DE
S1130E40FC016150704001900110D8F78095909595
S1130E508E0F9F1F08950F931F93CF93DF93FB0172
S1130E60238121FD03C08FEF9FEF2CC022FF16C00A
S1130E7046815781248135814217530744F4A08168
S1130E80B1819D012F5F3F4F318320838C93268155
S1130E9037812F5F3F4F3783268314C08B01EC01CA
S1130EA0FB010084F185E02D0995892BE1F6D80139
S1130EB016968D919C911797019617969C938E93F5
S1130EC01697CE01DF91CF911F910F910895FA01EA
S1130ED0AA27283051F1203181F1E8946F936E7F75
S1130EE06E5F7F4F8F4F9F4FAF4FB1E03ED0B4E066
S1130EF03CD0670F781F891F9A1FA11D680F791FA7
S1130F008A1F911DA11D6A0F711D811D911DA11DB7
S1130F1020D009F468943F912AE0269F11243019C7
S1130F20305D3193DEF6CF010895462F4770405D62
S1130F304193B3E00FD0C9F7F6CF462F4F70405D11
S1130F404A3318F0495D31FD4052419302D0A9F76C
S1130F50EACFB4E0A6959795879577956795BA9566
S1130F60C9F700976105710508959B01AC010A2E2C
S1130F7006945795479537952795BA95C9F7620F03
S1130F80731F841F951FA01D08952F923F924F92A7
S1130F905F926F927F928F929F92AF92BF92CF9205
S1130FA0DF92EF92FF920F931F93CF93DF93CDB70E
S1130FB0DEB7CA1BDB0B0FB6F894DEBF0FBECDBF86
S1130FC009942A88398848885F846E847D848C8457
S1130FD09B84AA84B984C884DF80EE80FD800C8160
S1130FE01B81AA81B981CE0FD11D0FB6F894DEBF43
S10F0FF00FBECDBFED010895F894FFCFB3
S1130FFC000061012000001200102564200D0A007D
S113100C4C2354544953207370696C6C004D6169C2
S113101C6E206D656E750053746172742067616D1A
S113102C650053657474696E6773004E6F20736545
S113103C7474696E677320666F7220796F750059CA
S107104C65730000C4
S9030000FC
