S01900004279676765726E206772757070652033362E7372656301
S11300000C9438000C9455000C9455000C94550035
S11300100C9455000C9455000C9455000C94550008
S11300200C9455000C9455000C9455000C945500F8
S11300300C9455000C9455000C9455000C945500E8
S11300400C9455000C9455000C9455000C945500D8
S11300500C9455000C9455000C9455000C945500C8
S11300600C9455000C9455000C9455000C945500B8
S113007011241FBECFEFD4E0DEBFCDBF11E0A0E05E
S1130080B1E0EAEEF6E002C005900D92AE33B1079E
S1130090D9F721E0AEE3B1E001C01D92A834B20764
S11300A0E1F70E946B000C9473030C94000081B37D
S11300B0806281BB80E48FBD89E08EBD81E081BF19
S11300C0089580B78B7F80BF87B38B7F87BB88B34E
S11300D0846088BB08950E94AD010E9461000E9463
S11300E057000E94A3010E943A010E9403012FEFCE
S11300F08FEF9EE0215080409040E1F700C0000067
S113010060E080E00E9421010E9485010E94DD00E0
S113011060E48FE00E94AA000E947D018FE00E94AB
S113012098000E948E010E94810180E090E0089571
S1130130CF93C82F0E947D0183E00E948A018C2FF7
S11301400E948A010E948E01C82F0E9481018C2F77
S1130150CF910895CF93DF93D82FC62F0E947D01AE
S113016082E00E948A018D2F0E948A018C2F0E94B6
S11301708A010E948101DF91CF9108950E947D013F
S113018080EC0E948A010E94810108951F93CF93FD
S1130190DF93182FEB010E947D0183E00E948A0106
S11301A0812F0E948A010E948E01182F0E948101D2
S11301B01883DF91CF911F910895CF93DF931F92FE
S11301C0CDB7DEB781E089830E9485010E94BE001D
S11301D0BE016F5F7F4F8EE00E94C6008981807EE2
S11301E0803831F08AE091E00E94FF0181E001C093
S11301F080E00F90DF91CF910895E0910801F09194
S1130200090180830895CF93DF93C0E0D0E013C049
S11302108C2F80550E94FD0080E090E008C0E091A2
S11302200601F0910701EC0FFD1F10820196803842
S11302309105ACF32196C830D10554F3DF91CF91E9
S11302400895CF93DF93D82FC62F82E20E94FD003A
S11302508D2F0E94FD0087E00E94FD0081E20E9434
S1130260FD008C2F0E94FD008FE70E94FD00DF91AE
S1130270CF9108958EEA0E94FD0081EA0E94FD005C
S11302808AED0E94FD0082E10E94FD0088EC0E943C
S1130290FD0088EA0E94FD008FE30E94FD0085EDC9
S11302A00E94FD0080E80E94FD0081E80E94FD009C
S11302B080E50E94FD0089ED0E94FD0081E20E941C
S11302C0FD0080E20E94FD0082E00E94FD008BEDB3
S11302D00E94FD0080E30E94FD008DEA0E94FD0063
S11302E080E00E94FD0084EA0E94FD0086EA0E94EC
S11302F0FD008FEA0E94FD00089588B38F7E88BBBD
S1130300089588B3806188BB089580EB87BB81E53D
S11303108DB908958FB9779BFECF08958FEF8FB96C
S1130320779BFECF8FB108955D9BFECF8CB9089566
S11303305F9BFECF8CB1089568E971E084E991E098
S11303400E94B401089510BC8FE189B988E18AB98B
S11303508EE880BD0E949C01089585B7806885BFA2
S113036080B7806280BF08950F931F93CF93DF936C
S1130370009731F46115710519F480E090E03AC0FA
S11303808B01EC016EE070E081E090E00E942F02AE
S1130390FC01892B91F380E883830115110571F029
S11303A01387028781E8838380913E0190913F0106
S11303B0892B21F4F0933F01E0933E012097C9F08B
S11303C0D187C0878381826083838091400190912B
S11303D04101892B71F4F0934101E0934001809134
S11303E0420190914301892B21F4F0934301E0935E
S11303F04201CF01DF91CF911F910F9108950F9387
S11304001F93CF93DF93E0914001F0914101238149
S113041021FF1BC08C01D0E0C0E0F80181918F0165
S11304206091400170914101DB011896ED91FC91BE
S11304301997882331F00995892B79F3DFEFCFEFF2
S1130440ECCF8AE00995892B19F08FEF9FEF02C05A
S11304508D2F9C2FDF91CF911F910F9108950F93B2
S11304601F93CF93DF93869F8001879F100D969FE4
S1130470100D1124C8010E944B02EC01009729F0D1
S1130480A80160E070E00E946C03CE01DF91CF917F
S11304901F910F9108950F931F93CF93DF93823091
S11304A0910510F482E090E0E0914601F09147015B
S11304B020E030E0A0E0B0E0309719F140815181B4
S11304C00281138148175907C8F08417950769F406
S11304D0109731F012960C93129713961C9327C021
S11304E0009346011093470122C02115310519F0EC
S11304F04217530718F49A01BD01EF01DF01F80117
S1130500DBCF21153105F9F0281B390B24303105D7
S113051080F48A819B816115710521F0FB0193832D
S1130520828304C09093470180934601FE01329672
S113053044C0FE01E20FF31F8193919322503109CD
S1130540398328833AC02091440130914501232BFB
S113055041F420910201309103013093450120932D
S1130560440120910001309101012115310541F42C
S11305702DB73EB74091040150910501241B350B62
S1130580E0914401F0914501E217F307A0F42E1B1A
S11305903F0B2817390778F0AC014E5F5F4F2417E3
S11305A0350748F04E0F5F1F5093450140934401B7
S11305B08193919302C0E0E0F0E0CF01DF91CF910D
S11305C01F910F910895CF93DF93009709F481C091
S11305D0FC01329713821282A0914601B091470127
S11305E0109781F420813181820F931F209144015F
S11305F0309145012817390751F5F0934501E093EF
S1130600440167C0ED0120E030E0CE17DF0740F47D
S11306104A815B819E0141155105F1F0EA01F5CF54
S1130620D383C28340815181840F951FC817D90792
S113063059F488819981840F951F02969183808350
S11306408A819B81938382832115310529F4F09358
S11306504701E09346013DC0E901FB83EA834991E8
S11306605991C40FD51FEC17FD0761F48081918166
S1130670840F951F0296E90199838883828193816F
S11306809B838A83E0E0F0E012968D919C9113970E
S1130690009719F0FD01DC01F7CF8D919C91119722
S11306A09D012E5F3F4F820F931F20914401309193
S11306B045012817390769F4309729F41092470146
S11306C01092460102C013821282B0934501A09396
S11306D04401DF91CF910895DC0101C06D93415035
S10D06E05040E0F70895F894FFCFAE
S11306EA00004801200000120010204D435032350A
S11306FA3135206973204E4F5420696E20636F6E22
S113070A66696775726174696F6E206D6F646520BE
S111071A616674657220726573657420210037
S9030000FC
