:100000000C9438000C9455000C943F010C9455004E
:100010000C9455000C9455000C9455000C9455000C
:100020000C9455000C9455000C9455000C945500FC
:100030000C9455000C9455000C9455000C945500EC
:100040000C9455000C9455000C9455000C945500DC
:100050000C9455000C9455000C9455000C945500CC
:100060000C9455000C9455000C9455000C945500BC
:1000700011241FBECFEFD4E0DEBFCDBF11E0A0E062
:10008000B1E0EAE1F0E102C005900D92AA3BB107B0
:10009000D9F721E0AAEBB1E001C01D92AB3DB20758
:1000A000E1F70E94B4010C940B080C94000081B39A
:1000B000806281BB80E48FBD89E08EBD81E081BF1D
:1000C000089580B78B7F80BF87B38B7F87BB88B352
:1000D000846088BB08950E948F026FEF8BE20E94BC
:1000E0002B026FEF80E60E942B026FEF80E70E94E9
:1000F0002B0260E48FE00E942B02F89485B78260A7
:1001000085BF85B78E7F85BF8BB780648BBF7894A2
:100110000895EF92FF920F931F93CF93DF93CDB784
:10012000DEB72B970FB6F894DEBF0FBECDBFE982C6
:10013000FA820B831C832D833E834F835887698704
:100140007A878B876E2D81E30E942B026E2D607E55
:1001500082E30E942B02FB806F2D85E30E942B021D
:1001600000E010E00DC0E4E0F0E0EC0FFD1FE00F58
:10017000F11F608186E3800F0E942B020F5F1F4FEB
:100180008F2D90E00817190774F380E00E943F025A
:100190002B960FB6F894DEBF0FBECDBFDF91CF9187
:1001A0001F910F91FF90EF900895FF920F931F936F
:1001B000CF93DF938C0161112DC082E60E9419025A
:1001C000C82F81E60E94190290E0880F991F880FBE
:1001D000991F880F991FC295C695C7708C2BF8017F
:1001E0009183808385E60E941902F82EF8018283AC
:1001F000C0E0D0E009C08C2F8A590E941902F80192
:10020000EC0FFD1F838321968F2D90E0C817D9072F
:1002100094F32EC0613061F582E70E941902C82F65
:1002200081E70E94190290E0880F991F880F991F9B
:10023000880F991FC295C695C7708C2BF8019183C2
:10024000808385E70E941902F82EF8018283C0E0BE
:10025000D0E009C08C2F8A580E941902F801EC0FD7
:10026000FD1F838321968F2D90E0C817D90794F343
:10027000C801DF91CF911F910F91FF9008951F92B8
:100280000F920FB60F9211242F933F934F935F93CA
:100290006F937F938F939F93AF93BF93EF93FF934E
:1002A000CF93DF93CDB7DEB72B97DEBFCDBF8AE00C
:1002B00091E00E94CF038CE20E941902982F927065
:1002C00080FF1CC060E0CE0101960E94D5008BE04B
:1002D000FE013196AAEBB1E001900D928A95E1F70B
:1002E0008DEB91E09F938F930E94B90340E061E012
:1002F0008CE20E9456020F900F901DC09923D9F0F6
:1003000061E0CE0101960E94D5008BE0FE0131969E
:10031000A6ECB1E001900D928A95E1F789EC91E0AD
:100320009F938F930E94B90340E062E08CE20E94A9
:1003300056020F900F902B960FB6F894DEBF0FBEAB
:10034000CDBFDF91CF91FF91EF91BF91AF919F9181
:100350008F917F916F915F914F913F912F910F906E
:100360000FBE0F901F901895EF92FF920F931F935F
:10037000CF93DF93CDB7DEB72B970FB6F894DEBFE0
:100380000FBECDBF0E9467030E9461000E9457000C
:100390000E945D030E94F4020E94BD022FEF8FEFC6
:1003A0009EE0215080409040E1F700C0000060E0F6
:1003B00080E00E94DB020E946B0085E490E09A835B
:1003C000898381E48C838D838E838F83888789875B
:1003D0008A878B8788E08B838DE191E00E94CF0331
:1003E0002FEF8FEF9AE4215080409040E1F700C05A
:1003F00000008CE391E00E94CF03E980FA800B813A
:100400001C812D813E814F81588569857A858B8538
:100410000E94890080E090E02B960FB6F894DEBF32
:100420000FBECDBFDF91CF911F910F91FF90EF9045
:100430000895CF93C82F0E94370383E00E9444039E
:100440008C2F0E9444030E944803C82F0E943B0344
:100450008C2FCF910895CF93DF93D82FC62F0E9472
:10046000370382E00E9444038D2F0E9444038C2FA7
:100470000E9444030E943B03DF91CF910895CF93E4
:10048000C82F0E943703C11104C081E80E944403B1
:100490000BC0C13021F482E80E94440305C0C23081
:1004A00019F484E80E944403CF9108951F93CF93D9
:1004B000DF93182FD62FC42F0E94370385E00E94A8
:1004C0004403812F0E9444038D2F0E9444038C2FEC
:1004D0000E9444030E943B03DF91CF911F91089536
:1004E0000E94370380EC0E9444030E943B0308955E
:1004F0001F93CF93DF93182FEB010E94370383E004
:100500000E944403812F0E9444030E944803182F35
:100510000E943B031883DF91CF911F910895CF93E1
:10052000DF931F92CDB7DEB781E089830E943F033E
:100530000E947002BE016F5F7F4F8EE00E947802C2
:100540008981807E803831F086E591E00E94CF037A
:1005500081E009C0803831F48AE891E00E94CF033D
:1005600080E001C080E00F90DF91CF910895E0918D
:100570000801F091090180830895CF93DF93C0E0D3
:10058000D0E013C08C2F80550E94B70280E090E02D
:1005900008C0E0910601F0910701EC0FFD1F1082E9
:1005A000019680389105ACF32196C830D10554F3FB
:1005B000DF91CF910895CF93DF93D82FC62F82E29A
:1005C0000E94B7028D2F0E94B70287E00E94B702F7
:1005D00081E20E94B7028C2F0E94B7028FE70E942F
:1005E000B702DF91CF9108958EEA0E94B70281EAA7
:1005F0000E94B7028AED0E94B70282E10E94B70210
:1006000088EC0E94B70288EA0E94B7028FE30E943A
:10061000B70285ED0E94B70280E80E94B70281E828
:100620000E94B70280E50E94B70289ED0E94B702DE
:1006300081E20E94B70280E20E94B70282E00E943B
:10064000B7028BED0E94B70280E30E94B7028DEAE9
:100650000E94B70280E00E94B70284EA0E94B702BB
:1006600086EA0E94B7028FEA0E94B702089588B313
:100670008F7E88BB089588B3806188BB089580EB26
:1006800087BB81E58DB908958FB9779BFECF08951B
:100690008FEF8FB9779BFECF8FB108955D9BFECF13
:1006A0008CB908955F9BFECF8CB1089562E573E02D
:1006B0008EE493E00E946E03089510BC8FE189B927
:1006C00088E18AB98EE880BD0E945603089585B7F7
:1006D000806885BF80B7806280BF08950F931F93A5
:1006E000CF93DF93009731F46115710519F480E021
:1006F00090E03AC08B01EC016EE070E081E090E0A8
:100700000E94E005FC01892B91F380E883830115A9
:10071000110571F01387028781E883838091D101ED
:100720009091D201892B21F4F093D201E093D10171
:100730002097C9F0D187C0878381826083838091AD
:10074000D3019091D401892B71F4F093D401E093FB
:10075000D3018091D5019091D601892B21F4F0939A
:10076000D601E093D501CF01DF91CF911F910F9179
:100770000895A0E0B0E0EFEBF3E00C94E407AE01E5
:100780004B5F5F4FFA0161917191AF018091D3018D
:100790009091D4010E94FF03E2E00C9400080F93B3
:1007A0001F93CF93DF93E091D301F091D401238184
:1007B00021FF1BC08C01D0E0C0E0F80181918F01C6
:1007C0006091D3017091D401DB011896ED91FC91F9
:1007D0001997882331F00995892B79F3DFEFCFEF53
:1007E000ECCF8AE00995892B19F08FEF9FEF02C0BB
:1007F0008D2F9C2FDF91CF911F910F910895ABE02A
:10080000B0E0E5E0F4E00C94D4076C017B018A01D0
:10081000FC0117821682838181FFCCC1CE01019633
:100820003C01F6019381F70193FD859193FF81913E
:100830007F01882309F4BAC1853239F493FD85918B
:1008400093FF81917F01853229F4B60190E00E94E7
:100850003A07E7CF912C212C312CFFE1F315D8F08A
:100860008B3279F038F4803279F08332A1F4232D81
:1008700020611DC08D3261F0803369F4232D216029
:1008800016C0832D8260382EE32DE4603E2E2AC0F0
:10089000F32DF8601DC037FC2DC020ED280F2A3045
:1008A00040F08E32B9F436FC81C1232D2064322E03
:1008B00019C036FE06C08AE0989E200D1124922EA3
:1008C00011C0EAE02E9E200D1124222EF32DF0629D
:1008D0003F2E08C08C3621F4832D8068382E02C04C
:1008E000883641F4F70193FD859193FF81917F0153
:1008F0008111B3CF982F9F7D9554933028F40C5FCE
:100900001F4F9FE399830DC0833631F0833771F019
:10091000833509F059C021C0F801808189830E5FB9
:100920001F4F88248394912C530113C02801F2E0B7
:100930004F0E511CF801A080B18036FE03C0692D16
:1009400070E002C06FEF7FEFC5010E942F074C01DE
:100950008201F32DFF773F2E16C0280122E0420EC0
:10096000511CF801A080B18036FE03C0692D70E0F3
:1009700002C06FEF7FEFC5010E941D074C01F32DF0
:10098000F0683F2E820133FC1BC0822D90E0881658
:100990009906B0F4B60180E290E00E943A072A94EA
:1009A000F4CFF50137FC859137FE81915F01B601E7
:1009B00090E00E943A0721102A9421E0821A9108BF
:1009C0008114910471F7E8C0843611F0893641F53D
:1009D000F80137FE07C060817181828193810C5FCD
:1009E0001F4F08C060817181072E000C880B990B86
:1009F0000E5F1F4FF32DFF763F2E97FF09C0909596
:100A00008095709561957F4F8F4F9F4FF0683F2E77
:100A10002AE030E0A3010E947607882E861845C0A0
:100A2000853731F4232D2F7EB22E2AE030E025C009
:100A3000932D997FB92E8F36C1F018F4883579F04F
:100A4000B5C0803719F0883721F0B0C0E92FE061D8
:100A5000BE2EB4FE0DC0FB2DF460BF2E09C034FEC7
:100A60000AC0292F2660B22E06C028E030E005C05B
:100A700020E130E002C020E132E0F801B7FE07C01B
:100A800060817181828193810C5F1F4F06C06081FC
:100A9000718180E090E00E5F1F4FA3010E947607F6
:100AA000882E8618FB2DFF773F2E36FE0DC0232D96
:100AB0002E7FA22E891458F434FE0BC032FC09C0DC
:100AC000832D8E7EA82E05C0B82CA32C03C0B82C75
:100AD00001C0B92CA4FE0FC0FE01E80DF11D8081FC
:100AE000803321F49A2D997EA92E09C0A2FE06C05A
:100AF000B394B39404C08A2D867809F0B394A3FC10
:100B000011C0A0FE06C0B21488F4280C922C9B18C9
:100B10000EC0B21460F4B60180E290E00E943A0781
:100B2000B394F7CFB21418F42B1802C0982C212CD0
:100B3000A4FE10C0B60180E390E00E943A07A2FE36
:100B400017C0A1FC03C088E790E002C088E590E0F0
:100B5000B6010CC08A2D867859F0A1FE02C08BE246
:100B600001C080E2A7FC8DE2B60190E00E943A0746
:100B7000891438F4B60180E390E00E943A079A9411
:100B8000F7CF8A94F301E80DF11D8081B60190E062
:100B90000E943A078110F5CF222009F442CEB60117
:100BA00080E290E00E943A072A94F6CFF60186810F
:100BB000978102C08FEF9FEF2B96E2E10C94F00734
:100BC0000F931F93CF93DF93869F8001879F100D14
:100BD000969F100D1124C8010E94FC05EC0100979E
:100BE00029F0A80160E070E00E942807CE01DF91A3
:100BF000CF911F910F9108950F931F93CF93DF9380
:100C00008230910510F482E090E0E091D901F091FA
:100C1000DA0120E030E0A0E0B0E0309719F1408147
:100C200051810281138148175907C8F0841795072D
:100C300069F4109731F012960C93129713961C9347
:100C400027C00093D9011093DA0122C02115310584
:100C500019F04217530718F49A01BD01EF01DF01A3
:100C6000F801DBCF21153105F9F0281B390B2430B1
:100C7000310580F48A819B816115710521F0FB01AA
:100C80009383828304C09093DA018093D901FE019B
:100C9000329644C0FE01E20FF31F819391932250DC
:100CA0003109398328833AC02091D7013091D80186
:100CB000232B41F420910201309103013093D8019C
:100CC0002093D701209100013091010121153105B8
:100CD00041F42DB73EB74091040150910501241B0A
:100CE000350BE091D701F091D801E217F307A0F49A
:100CF0002E1B3F0B2817390778F0AC014E5F5F4F72
:100D00002417350748F04E0F5F1F5093D8014093CA
:100D1000D7018193919302C0E0E0F0E0CF01DF9131
:100D2000CF911F910F910895CF93DF93009709F40E
:100D300081C0FC01329713821282A091D901B09137
:100D4000DA01109781F420813181820F931F209165
:100D5000D7013091D8012817390751F5F093D80100
:100D6000E093D70167C0ED0120E030E0CE17DF0748
:100D700040F44A815B819E0141155105F1F0EA0181
:100D8000F5CFD383C28340815181840F951FC8174B
:100D9000D90759F488819981840F951F0296918310
:100DA00080838A819B81938382832115310529F475
:100DB000F093DA01E093D9013DC0E901FB83EA83B6
:100DC00049915991C40FD51FEC17FD0761F480813B
:100DD0009181840F951F0296E9019983888382810E
:100DE00093819B838A83E0E0F0E012968D919C9141
:100DF0001397009719F0FD01DC01F7CF8D919C91BD
:100E000011979D012E5F3F4F820F931F2091D701B5
:100E10003091D8012817390769F4309729F41092D6
:100E2000DA011092D90102C013821282B093D80164
:100E3000A093D701DF91CF910895FC0105906150F7
:100E400070400110D8F7809590958E0F9F1F0895E0
:100E5000DC0101C06D9341505040E0F70895FC0162
:100E60006150704001900110D8F7809590958E0FD9
:100E70009F1F08950F931F93CF93DF93FB0123814F
:100E800021FD03C08FEF9FEF2CC022FF16C04681CB
:100E90005781248135814217530744F4A081B181E1
:100EA0009D012F5F3F4F318320838C9326813781B3
:100EB0002F5F3F4F3783268314C08B01EC01FB016A
:100EC0000084F185E02D0995892BE1F6D80116966D
:100ED0008D919C911797019617969C938E931697D8
:100EE000CE01DF91CF911F910F910895FA01AA27AA
:100EF000283051F1203181F1E8946F936E7F6E5F5D
:100F00007F4F8F4F9F4FAF4FB1E03ED0B4E03CD00A
:100F1000670F781F891F9A1FA11D680F791F8A1FED
:100F2000911DA11D6A0F711D811D911DA11D20D054
:100F300009F468943F912AE0269F11243019305D0E
:100F40003193DEF6CF010895462F4770405D4193FF
:100F5000B3E00FD0C9F7F6CF462F4F70405D4A334C
:100F600018F0495D31FD4052419302D0A9F7EACF14
:100F7000B4E0A6959795879577956795BA95C9F743
:100F800000976105710508959B01AC010A2E069436
:100F90005795479537952795BA95C9F7620F731FEF
:100FA000841F951FA01D08952F923F924F925F922C
:100FB0006F927F928F929F92AF92BF92CF92DF9269
:100FC000EF92FF920F931F93CF93DF93CDB7DEB7CE
:100FD000CA1BDB0B0FB6F894DEBF0FBECDBF099462
:100FE0002A88398848885F846E847D848C849B84B9
:100FF000AA84B984C884DF80EE80FD800C811B81C7
:10100000AA81B981CE0FD11D0FB6F894DEBF0FBEF5
:0A101000CDBFED010895F894FFCF65
:10101A000000DB01200000120010496E7465727531
:10102A00707420616B7469766572740D00496E7410
:10103A00657275707420657220696B6B6520616BCF
:10104A00746976203D20484F59210D00496E746518
:10105A007275707420657220616B746976203D2008
:10106A004C4156210D00204D43503235313520690F
:10107A0073204E4F5420696E20636F6E66696775E0
:10108A00726174696F6E206D6F6465206166746544
:10109A0072207265736574202100204D43503235E9
:1010AA00313520697320494E20636F6E6669677512
:1010BA00726174696F6E206D6F6465206166746514
:0A10CA007220726573657420210026
:00000001FF
