S01900004279676765726E206772757070652033362E7372656301
S11300000C9438000C9455000C94EE020C9455009A
S11300100C9455000C9455000C9455000C94550008
S11300200C9455000C9455000C9455000C945500F8
S11300300C9455000C9455000C9455000C945500E8
S11300400C9455000C9455000C9455000C945500D8
S11300500C9455000C9455000C9455000C945500C8
S11300600C9455000C9455000C9455000C945500B8
S113007011241FBECFEFD4E0DEBFCDBF12E0A0E05D
S1130080B1E0E0E9F5E102C005900D92AC3CB107A6
S1130090D9F722E0ACECB2E001C01D92AD3EB2074C
S11300A0E1F70E942E040C94C60A0C94000081B35C
S11300B0806281BB80E48FBD89E08EBD81E081BF19
S11300C00895EF92FF920F931F93CF93DF9300D085
S11300D000D0CDB7DEB7082F40E060E070E080E0EC
S11300E094E10E94AD0582E58A95F1F710E010C015
S11300F0E12EF12C60E070E080E094E10E94B20512
S1130100E1E0F0E0EC0FFD1FEE0DFF1D80831F5FAB
S1130110143070F3013041F028F0023039F003302C
S113012039F008C0898107C08A8105C08B8103C06A
S11301308C8101C080E00F900F900F900F90DF91A1
S1130140CF911F910F91FF90EF9008954F925F927E
S11301506F927F92AF92BF92CF92DF92EF92FF9213
S11301600F931F93CF93DF93CDB7DEB729013A01E5
S11301709B01AC01241935094609570989899A89D3
S1130180AB89BC89BC01CD016A197B098C099D0925
S11301900E94B705A8019701241935094609570992
S11301A00E94C705C601B501620F731F841F951F06
S11301B0DF91CF911F910F91FF90EF90DF90CF903F
S11301C0BF90AF907F906F905F904F900895AF92E3
S11301D0BF92CF92DF92EF92FF920F931F93611120
S11301E041C0873A00F1682F70E080E090E01F92F0
S11301F01F921F9224E62F930F2EF2E3AF2EB12C01
S1130200C12CD12CF02DE12CF12C8701EA9420EAA9
S113021030E040E050E00E94A6000F900F900F9055
S11302200F90862F9EC0882309F498C0682F70E031
S113023080E090E01F921F921F9222E32F93A12C43
S1130240B12C65011FE9E12EF12C00E010E020E063
S113025030E0A9010E94A6000F900F900F900F901C
S1130260862F7FC06130F1F5873A00F1682F70E086
S113027080E090E01F921F921F9224E62F930F2E8E
S1130280F2E3AF2EB12CC12CD12CF02DE12CF12CAA
S11302908701EA9423EA30E040E050E00E94A6009F
S11302A00F900F900F900F90862F5BC0682F70E017
S11302B080E090E01F921F921F9222E32F93A12CC3
S11302C0B12C650112EAE12EF12C00E010E020E0EF
S11302D030E0A9010E94A6000F900F900F900F909C
S11302E0862F3FC06230E1F4682F70E080E090E038
S11302F01F921F921F9224E62F93A12CB12C65010B
S1130300E12CF12C8701EA942AE030E040E050E04F
S11303100E94A6000F900F900F900F90862F21C07F
S11303206330F1F4682F70E080E090E01F921F9238
S11303301F9224E62F93A12CB12C6501E12CF12C02
S11303408701EA942CE030E040E050E00E94A600EF
S11303500F900F900F900F90862F03C080E001C084
S113036080E01F910F91FF90EF90DF90CF90BF90AE
S1130370AF90089580B78B7F80BF87B38B7F87BB97
S113038088B3846088BB0895CF93DF931F92CDB761
S1130390DEB70E94CE0487B3886087BB63E48AE239
S11303A00E94680461EB89E20E94680465E088E2C7
S11303B00E94680463E08BE20E9468048FEF9FE868
S11303C00197F1F700C0000040E06FEF8CE20E945B
S11303D095048FEF9FE80197F1F700C000006FEFDD
S11303E080E60E9468046FEF80E70E946804F89436
S11303F085B7826085BF85B78E7F85BF8BB78068E0
S11304008BBF81B3877F81BB78948FEF9FE801977F
S1130410F1F700C0000060E08FE00E94680481E012
S11304208983BE016F5F7F4F8EE00E94B70489818C
S1130430807E803421F48AE091E00E948A068981DA
S1130440807E21F485E391E00E948A060F90DF917B
S1130450CF910895EF92FF920F931F93CF93DF9361
S1130460CDB7DEB72B970FB6F894DEBF0FBECDBF66
S1130470E982FA820B831C832D833E834F83588742
S113048069877A878B8709811A81B801687F7770B9
S113049076956795769567957695679581E30E943D
S11304A06804602F6295660F607E82E30E94680490
S11304B0FB806F2D85E30E94680400E010E00DC00E
S11304C0E4E0F0E0EC0FFD1FE00FF11F608186E334
S11304D0800F0E9468040F5F1F4F8F2D90E0081754
S11304E0190774F380E00E947C042B960FB6F894ED
S11304F0DEBF0FBECDBFDF91CF911F910F91FF9053
S1130500EF900895FF920F931F93CF93DF938C0185
S113051061112EC082E60E945604C82FC07E81E677
S11305200E94560490E0880F991F880F991F880F26
S1130530991FC295C695C7708C2BF801918380834F
S113054085E60E945604F82EF8018283C0E0D0E0CC
S113055009C08C2F8A590E945604F801EC0FFD1F24
S1130560838321968F2D90E0C817D90794F32FC069
S1130570613069F582E70E945604C82FC07E81E786
S11305800E94560490E0880F991F880F991F880FC6
S1130590991FC295C695C7708C2BF80191838083EF
S11305A085E70E945604F82EF8018283C0E0D0E06B
S11305B009C08C2F8A580E945604F801EC0FFD1FC5
S11305C0838321968F2D90E0C817D90794F3C8012F
S11305D0DF91CF911F910F91FF9008951F920F9279
S11305E00FB60F9211241F932F933F934F935F9352
S11305F06F937F938F939F93AF93BF93EF93FF93E7
S1130600CF93DF93CDB7DEB72B97DEBFCDBF8CE2A0
S11306100E945604982F927080FF4CC060E0CE0177
S113062001960E9482028BE0FE013196ACECB2E0AE
S113063001900D928A95E1F78EE591E00E948A0679
S11306408BE891E09F938F930E946D060F900F901B
S113065010E009C0E12FF0E0E453FD4F838190E006
S11306600E9483061F5F8091CE02181798F31F9291
S11306708F938AEA91E09F938F930E946D06ECEC2E
S1130680F2E081818F9380818F9382EC91E09F933C
S11306908F930E946D0688E392E00E948A0640E0F0
S11306A061E08CE20E9495040FB6F894DEBF0FBEA1
S11306B0CDBF52C0992309F44FC061E0CE01019629
S11306C00E9482028BE0FE013196A8EDB2E0019017
S11306D00D928A95E1F78EE591E00E948A068BECF3
S11306E091E09F938F930E946D060F900F9010E0FE
S11306F009C0E12FF0E0E852FD4F838190E00E94B1
S113070083061F5F8091DA02181798F31F928F9364
S11307108AEA91E09F938F930E946D06E8EDF2E0E0
S113072081818F9380818F9382EC91E09F938F934B
S11307300E946D0688E392E00E948A0688E392E0B4
S11307400E948A0640E062E08CE20E9495040FB6A3
S1130750F894DEBF0FBECDBF2B960FB6F894DEBF64
S11307600FBECDBFDF91CF91FF91EF91BF91AF91BC
S11307709F918F917F916F915F914F913F912F91B5
S11307801F910F900FBE0F901F901895CF92DF927C
S1130790EF92FF920F931F93CF93DF93CDB7DEB702
S11307A02B970FB6F894DEBF0FBECDBF80E00E943A
S11307B0610060E00E94E700C82E81E00E946100B1
S11307C061E00E94E700D82E86E0E82E89831A8231
S11307D0F12C04E01C2D2D2D3E814F815885698517
S11307E07A858B850E942A028AEE91E00E948A060D
S11307F01F92CF928FE092E09F938F930E946D0699
S11308001F92DF928CE192E09F938F930E946D067A
S11308101F9284E08F9389E292E09F938F930E94CA
S11308206D061F9286E08F9382EC91E09F938F93E5
S11308300E946D060FB6F894DEBF0FBECDBF2B9697
S11308400FB6F894DEBF0FBECDBFDF91CF911F91DD
S11308500F91FF90EF90DF90CF9008950E94A6052E
S11308600E94BA010E9457000E949C050E94330511
S11308700E94FC042FEF8FEF9EE0215080409040B7
S1130880E1F700C0000060E080E00E941A050E94C9
S1130890C4018AE392E00E948A068FEF9FE20197E7
S11308A0F1F700C000000E94C603F7CFCF93C82F12
S11308B00E94760583E00E9483058C2F0E948305A5
S11308C00E948705C82F0E947A058C2FCF91089526
S11308D0CF93DF93D82FC62F0E94760582E00E9423
S11308E083058D2F0E9483058C2F0E9483050E940F
S11308F07A05DF91CF910895CF93C82F0E94760592
S1130900C11104C081E80E9483050BC0C13021F4E9
S113091082E80E94830505C0C23019F484E80E946D
S113092083050E947A05CF9108951F93CF93DF9397
S1130930182FD62FC42F0E94760585E00E948305C8
S1130940812F0E9483058D2F0E9483058C2F0E9486
S113095083050E947A05DF91CF911F9108950E942B
S1130960760580EC0E9483050E947A0508951F9302
S1130970CF93DF93182FEB010E94760583E00E944A
S11309808305812F0E9483050E948705182F0E94EA
S11309907A051883DF91CF911F910895CF93DF9348
S11309A01F92CDB7DEB781E089830E947E050E9445
S11309B0AF04BE016F5F7F4F8EE00E94B704898150
S11309C0807E803831F085E692E00E948A0681E0DC
S11309D009C0803831F48AE992E00E948A0680E0F6
S11309E001C080E00F90DF91CF910895E09108015C
S11309F0F091090180830895CF93DF93C0E0D0E0A4
S1130A0013C08C2F80550E94F60480E090E008C04B
S1130A10E0910601F0910701EC0FFD1F1082019691
S1130A2080389105ACF32196C830D10554F3DF9199
S1130A30CF910895CF93DF93D82FC62F82E20E94DF
S1130A40F6048D2F0E94F60487E00E94F60481E2EA
S1130A500E94F6048C2F0E94F6048FE70E94F6048D
S1130A60DF91CF9108958EEA0E94F60481EA0E94F4
S1130A70F6048AED0E94F60482E10E94F60488ECF2
S1130A800E94F60488EA0E94F6048FE30E94F604AA
S1130A9085ED0E94F60480E80E94F60481E80E9435
S1130AA0F60480E50E94F60489ED0E94F60481E2D2
S1130AB00E94F60480E20E94F60482E00E94F6049A
S1130AC08BED0E94F60480E30E94F6048DEA0E94F6
S1130AD0F60480E00E94F60484EA0E94F60486EAA2
S1130AE00E94F6048FEA0E94F604089588B38F7E6C
S1130AF088BB089588B3806188BB089580EB87BB69
S1130B0081E58DB908958FB9779BFECF08958FEF56
S1130B108FB9779BFECF8FB108955D9BFECF8CB9C3
S1130B2008955F9BFECF8CB1089561E975E08DE86F
S1130B3095E00E942206089510BC8FE189B988E1EE
S1130B408AB98EE880BD0E949505089585B78068AE
S1130B5085BF80B7806280BF0895860F971FFC0110
S1130B6040830895860F971FFC0180810895DB015F
S1130B708F939F930E94E605BF91AF91A29F800D32
S1130B80911DA39F900DB29F900D11240895052EE1
S1130B9097FB1EF400940E94DE0557FD07D00E94C7
S1130BA0F10507FC03D04EF40C94DE0550954095F6
S1130BB0309521953F4F4F4F5F4F08959095809505
S1130BC0709561957F4F8F4F9F4F08950E94130634
S1130BD0A59F900DB49F900DA49F800D911D11248D
S1130BE00895A1E21A2EAA1BBB1BFD010DC0AA1F6A
S1130BF0BB1FEE1FFF1FA217B307E407F50720F082
S1130C00A21BB30BE40BF50B661F771F881F991FFC
S1130C101A9469F760957095809590959B01AC0145
S1130C20BD01CF010895A29FB001B39FC001A39F4E
S1130C30700D811D1124911DB29F700D811D112411
S1130C40911D08950F931F93CF93DF93009731F471
S1130C506115710519F480E090E03AC08B01EC0154
S1130C606EE070E081E090E00E949B08FC01892B1B
S1130C7091F380E883830115110571F013870287CE
S1130C8081E883838091E3029091E402892B21F42B
S1130C90F093E402E093E3022097C9F0D187C08780
S1130CA08381826083838091E5029091E602892B9F
S1130CB071F4F093E602E093E5028091E7029091EB
S1130CC0E802892B21F4F093E802E093E702CF01D4
S1130CD0DF91CF911F910F910895A0E0B0E0E3E779
S1130CE0F6E00C949F0AAE014B5F5F4FFA016191ED
S1130CF07191AF018091E5029091E6020E94BA06DB
S1130D00E2E00C94BB0A6091E5027091E6020E9455
S1130D10F50908950F931F93CF93DF93E091E502B4
S1130D20F091E602238121FF1BC08C01D0E0C0E0DA
S1130D30F80181918F016091E5027091E602DB0177
S1130D401896ED91FC911997882331F00995892B18
S1130D5079F3DFEFCFEFECCF8AE00995892B19F017
S1130D608FEF9FEF02C08D2F9C2FDF91CF911F91AA
S1130D700F910895ABE0B0E0E0ECF6E00C948F0A3C
S1130D806C017B018A01FC0117821682838181FF39
S1130D90CCC1CE0101963C01F6019381F70193FD8C
S1130DA0859193FF81917F01882309F4BAC185322B
S1130DB039F493FD859193FF81917F01853229F464
S1130DC0B60190E00E94F509E7CF912C212C312C3B
S1130DD0FFE1F315D8F08B3279F038F4803279F0F2
S1130DE08332A1F4232D20611DC08D3261F0803344
S1130DF069F4232D216016C0832D8260382EE32DE3
S1130E00E4603E2E2AC0F32DF8601DC037FC2DC0CF
S1130E1020ED280F2A3040F08E32B9F436FC81C11F
S1130E20232D2064322E19C036FE06C08AE0989E17
S1130E30200D1124922E11C0EAE02E9E200D1124C3
S1130E40222EF32DF0623F2E08C08C3621F4832D20
S1130E508068382E02C0883641F4F70193FD8591ED
S1130E6093FF81917F018111B3CF982F9F7D95547A
S1130E70933028F40C5F1F4F9FE399830DC0833692
S1130E8031F0833771F0833509F059C021C0F8017E
S1130E90808189830E5F1F4F88248394912C530192
S1130EA013C02801F2E04F0E511CF801A080B1805C
S1130EB036FE03C0692D70E002C06FEF7FEFC501FD
S1130EC00E94EA094C018201F32DFF773F2E16C0E0
S1130ED0280122E0420E511CF801A080B18036FEA8
S1130EE003C0692D70E002C06FEF7FEFC5010E945F
S1130EF0D8094C01F32DF0683F2E820133FC1BC04E
S1130F00822D90E088169906B0F4B60180E290E054
S1130F100E94F5092A94F4CFF50137FC859137FE38
S1130F2081915F01B60190E00E94F50921102A9495
S1130F3021E0821A91088114910471F7E8C0843683
S1130F4011F0893641F5F80137FE07C060817181DF
S1130F50828193810C5F1F4F08C060817181072ECD
S1130F60000C880B990B0E5F1F4FF32DFF763F2E5D
S1130F7097FF09C090958095709561957F4F8F4F2D
S1130F809F4FF0683F2E2AE030E0A3010E94310A0F
S1130F90882E861845C0853731F4232D2F7EB22E36
S1130FA02AE030E025C0932D997FB92E8F36C1F009
S1130FB018F4883579F0B5C0803719F0883721F0F6
S1130FC0B0C0E92FE061BE2EB4FE0DC0FB2DF4606D
S1130FD0BF2E09C034FE0AC0292F2660B22E06C0D7
S1130FE028E030E005C020E130E002C020E132E03A
S1130FF0F801B7FE07C060817181828193810C5F23
S11310001F4F06C06081718180E090E00E5F1F4F2A
S1131010A3010E94310A882E8618FB2DFF773F2EEC
S113102036FE0DC0232D2E7FA22E891458F434FED3
S11310300BC032FC09C0832D8E7EA82E05C0B82CAF
S1131040A32C03C0B82C01C0B92CA4FE0FC0FE0110
S1131050E80DF11D8081803321F49A2D997EA92E0B
S113106009C0A2FE06C0B394B39404C08A2D867846
S113107009F0B394A3FC11C0A0FE06C0B21488F416
S1131080280C922C9B180EC0B21460F4B60180E2B6
S113109090E00E94F509B394F7CFB21418F42B181A
S11310A002C0982C212CA4FE10C0B60180E390E06D
S11310B00E94F509A2FE17C0A1FC03C088E790E0D6
S11310C002C088E590E0B6010CC08A2D867859F0FC
S11310D0A1FE02C08BE201C080E2A7FC8DE2B60152
S11310E090E00E94F509891438F4B60180E390E099
S11310F00E94F5099A94F7CF8A94F301E80DF11D43
S11311008081B60190E00E94F5098110F5CF22207C
S113111009F442CEB60180E290E00E94F5092A94D7
S1131120F6CFF6018681978102C08FEF9FEF2B9651
S1131130E2E10C94AB0A0F931F93CF93DF93869F46
S11311408001879F100D969F100D1124C8010E94E5
S1131150B708EC01009729F0A80160E070E00E9454
S1131160E309CE01DF91CF911F910F9108950F9361
S11311701F93CF93DF938230910510F482E090E0C7
S1131180E091EB02F091EC0220E030E0A0E0B0E06E
S1131190309719F140815181028113814817590711
S11311A0C8F08417950769F4109731F012960C93E0
S11311B0129713961C9327C00093EB021093EC0232
S11311C022C02115310519F04217530718F49A016A
S11311D0BD01EF01DF01F801DBCF21153105F9F085
S11311E0281B390B2430310580F48A819B816115D9
S11311F0710521F0FB019383828304C09093EC0278
S11312008093EB02FE01329644C0FE01E20FF31F0D
S11312108193919322503109398328833AC02091D4
S1131220E9023091EA02232B41F42091020130912A
S113123003013093EA022093E902209100013091E6
S113124001012115310541F42DB73EB74091040148
S113125050910501241B350BE091E902F091EA025B
S1131260E217F307A0F42E1B3F0B2817390778F079
S1131270AC014E5F5F4F2417350748F04E0F5F1FD8
S11312805093EA024093E9028193919302C0E0E013
S1131290F0E0CF01DF91CF911F910F910895CF938B
S11312A0DF93009709F481C0FC0132971382128204
S11312B0A091EB02B091EC02109781F4208131816E
S11312C0820F931F2091E9023091EA02281739070F
S11312D051F5F093EA02E093E90267C0ED0120E0E2
S11312E030E0CE17DF0740F44A815B819E0141154F
S11312F05105F1F0EA01F5CFD383C28340815181D6
S1131300840F951FC817D90759F488819981840FD0
S1131310951F0296918380838A819B819383828324
S11313202115310529F4F093EC02E093EB023DC062
S1131330E901FB83EA8349915991C40FD51FEC1746
S1131340FD0761F480819181840F951F0296E90164
S113135099838883828193819B838A83E0E0F0E090
S113136012968D919C911397009719F0FD01DC0161
S1131370F7CF8D919C9111979D012E5F3F4F820F66
S1131380931F2091E9023091EA022817390769F482
S1131390309729F41092EC021092EB0202C01382EF
S11313A01282B093EA02A093E902DF91CF910895EB
S11313B0FC010590615070400110D8F7809590951C
S11313C08E0F9F1F0895DC0101C06D934150504062
S11313D0E0F70895FC016150704001900110D8F7C6
S11313E0809590958E0F9F1F08950F931F93CF9311
S11313F0DF93FB01238121FD03C08FEF9FEF2CC0FE
S113140022FF16C046815781248135814217530734
S113141044F4A081B1819D012F5F3F4F318320832C
S11314208C93268137812F5F3F4F3783268314C0E7
S11314308B01EC01FB010084F185E02D0995892BDA
S1131440E1F6D80116968D919C91179701961796FF
S11314509C938E931697CE01DF91CF911F910F919C
S11314600895FA01AA27283051F1203181F1E89436
S11314706F936E7F6E5F7F4F8F4F9F4FAF4FB1E083
S11314803ED0B4E03CD0670F781F891F9A1FA11D7E
S1131490680F791F8A1F911DA11D6A0F711D811D7F
S11314A0911DA11D20D009F468943F912AE0269F44
S11314B011243019305D3193DEF6CF010895462FA3
S11314C04770405D4193B3E00FD0C9F7F6CF462F84
S11314D04F70405D4A3318F0495D31FD40524193ED
S11314E002D0A9F7EACFB4E0A695979587957795AA
S11314F06795BA95C9F700976105710508959B0131
S1131500AC010A2E06945795479537952795BA95B9
S1131510C9F7620F731F841F951FA01D08952F9292
S11315203F924F925F926F927F928F929F92AF926F
S1131530BF92CF92DF92EF92FF920F931F93CF93BC
S1131540DF93CDB7DEB7CA1BDB0B0FB6F894DEBF53
S11315500FBECDBF09942A88398848885F846E8479
S11315607D848C849B84AA84B984C884DF80EE80C3
S1131570FD800C811B81AA81B981CE0FD11D0FB6CC
S1131580F894DEBF0FBECDBFED010895F894FFCFF0
S11315900000ED02200000120010204D43503235AF
S11315A0313520697320494E206C6F6F706261631E
S11315B06B206D6F646520616674657220696E6965
S11315C07420210D00204D4350323531352069738C
S11315D020494E204E4F524D414C206D6F64652082
S11315E0616674657220696E697420210D000D0AAC
S11315F023232323232323232323232323232323B7
S113160023204E4557204D4553534147452023231E
S11316102323232323232323230D00526563656996
S1131620766564206D657373616765206F6E2062F3
S1131630756666657220313A09000D0A7769746827
S11316402064617461206C656E67743A0925640ACC
S11316500D0049443A0925640D0A00526563656921
S1131660766564206D657373616765206F6E2062B3
S1131670756666657220323A09000D0A2323232316
S1131680232323204E4557204D455353414745209E
S113169053454E445420232323232323230D004462
S11316A061746120593A0925690D0A004461746125
S11316B020583A0925690D0A0044617461206C655B
S11316C06E67743A0925640A0D000D0A2323232347
S11316D02323232323232323232323232048454C69
S11316E04C4F202323232323232323232323232374
S11316F02323230D00204D435032353135206973A7
S1131700204E4F5420696E20636F6E666967757250
S11317106174696F6E206D6F6465206166746572B3
S113172020726573657420210D00204D43503235BD
S1131730313520697320494E20636F6E6669677581
S1131740726174696F6E206D6F6465206166746583
S10F17507220726573657420210D000086
S9030000FC
